:020000041000EA
:10100000480500201910001000000000A310001077
:1010100000040100000100001249134A134B00F0C4
:101020001AF8134880471349134A144B00F013F879
:101030001349144A144B00F00EF81449144A0020C6
:10104000521A02DD043A8850FCDC124880471248EC
:101050008047124880479B1A03DD043BC858D05094
:10106000FBDC7047E05D00100C0000204401002014
:10107000C93F0010185F00104805002064060020DA
:101080003460001068060020900F0020900F0020B0
:1010900048130020A110001019590010053D001040
:1010A0007047FEE710B582B06B46354ADA80354BA3
:1010B000354A1A60354B0121C022520099508020D8
:1010C0001A58334C22401A508022120231480260D2
:1010D00031480260812292009950304A8423802155
:1010E000C904D1501DE029498122920088588023EB
:1010F0009B0003438B50294AFC235B00D358002BF1
:10110000F9D0C0239B00D358009380231B02214AAF
:101110001360214A13606B469A1DDB88013B9BB22A
:1011200013806B4606331B889BB2002BDBD1009BE0
:101130000023009305E080231B02164A1360164A21
:101140001360174B1B6C1B0FF5D1104B80215858A7
:10115000C022920202435A5000228531FF315A5078
:1011600084395A500D4B9532FF328039FF399950EE
:1011700083315A580B4802405A5002B010BDC04645
:1011800050460000BC4003480004103F00000348E4
:10119000FFFFFC7FE0400348E440034800040348AD
:1011A00000400348FFFFFFFB00B583B00023124A55
:1011B0001360124A13600321114803F0EFFB114939
:1011C00080228858104B03438B501423019308E06E
:1011D000019B013B019380231B02074A1360074ACE
:1011E0001360019B002BF3D1FFF75CFF0021044843
:1011F00003F0D4FB03B000BDE0400348E4400348E3
:10120000000403480000034800000180F8B552497B
:10121000524D280003F03AFB5149524E300003F082
:101220007DFB5149514C200003F078FB0321300035
:1012300003F0B4FB0321200003F0B0FBFFF7B4FF81
:101240004B49280003F0E0FB4A49200003F038FC3A
:1012500082225200A1588023DB000B43A350434A53
:1012600084235B00D3589B06F9D5140082235B00CE
:10127000D25803208243E250E25801210A43E2504F
:10128000384DEA588243EA50EA580A43EA503A4B4A
:101290001A6888235B00E250384A1268E250384AE4
:1012A0000021200003F044FC364A0121200003F015
:1012B0003FFC354A0021280003F03AFC334A012163
:1012C000280003F035FC0021280003F067FB002113
:1012D000200003F063FB00220121280003F066FBDD
:1012E0000021280003F074FB200003F06AFB0321B7
:1012F000200003F053FB0321280003F04FFBB02331
:10130000234AE2500422FF32EA50224A06212000FA
:1013100003F00EFC114EC2277F00F3594022134305
:10132000F3511D4A0721200003F002FCF3598024E9
:101330002343F351194A0721280003F0F9FBC02287
:101340005200B3582343B3508432B15880239B00DA
:101350000B43B350F8BDC046780500200000034899
:10136000B005002000040348E405002000080348FD
:101370000C06002000060020F8050020FC050020D7
:10138000C4050020D405002090050020A005002001
:1013900003040000680500204805002058050020CF
:1013A00010B500F007F800F02BFA10BD10B5FFF7EC
:1013B000F7FF10BDF0B5DE4657464E464546E0B550
:1013C00085B0DE4E0021300002F01EFF80235B005E
:1013D0009846F360DA49DB4F380002F02FFF022312
:1013E0009A46FB6304247C638021C904300002F028
:1013F0001DFF07233361D44A0121380002F05FFF4B
:10140000D24A0221380002F05AFFD14A03213800A3
:1014100002F055FF01220121380002F035FF0122C0
:101420000221380002F084FFA4257B5923437B511D
:1014300001218B46F16000243C67F960C549C64F25
:10144000380002F012FFC54B7B6380210905300094
:1014500002F0ECFE70213161C14A6F39380002F0B0
:101460002EFFC04A0221380002F029FFBE4A0321A4
:10147000380002F024FF0121380002F019FF504625
:10148000F0603C675846F860B849B94F380002F040
:10149000D5FEA023FB63B74B7B6380218905300019
:1014A00002F0C4FEE020C0013061B34A01213800DF
:1014B00002F005FFB14A0221380002F000FFB04AF5
:1014C0000321380002F0FBFE0822F2603C675E4612
:1014D000FE60A026F6050021300002F055FF4746C9
:1014E000F760A849A84F380002F060FFD2239B00A4
:1014F0009846FB637C64D223DB00994619003800D0
:1015000002F0BFFF8021C904300002F06AFF072308
:1015100033619E4A0121380002F080FF9C4A02217B
:10152000380002F07BFF9B4A0321380002F076FF6F
:1015300001220121380002F05DFF9749380002F0D6
:10154000C7FF3C679549964F380002F02FFF43468E
:10155000FB637C644946380002F093FF8021090553
:10156000300002F03EFF702131618E4A6F39380041
:1015700002F054FF8C4A0221380002F04FFF8B4AE0
:101580000321380002F04AFF01220121380002F055
:1015900031FF8749380002F09BFF3C678549864F41
:1015A000380002F003FF4146F9637C644946380085
:1015B00002F067FF80214905300002F012FFE023AE
:1015C000DB0033617D4A0121380002F027FF7C4AAD
:1015D0000221380002F022FF7A4A0321380002F08B
:1015E0001DFF01220121380002F004FF7649380076
:1015F00002F06EFF3C677549754F380002F0D6FE69
:101600004146F96379644946380002F03AFF802187
:101610008905300002F0E5FEE020C00130616D4A2E
:101620000121380002F0FAFE6B4A0221380002F074
:10163000F5FE6A4A0321380002F0F0FE0122012182
:10164000380002F0D7FE03220021380002F01CFF10
:1016500002220121380002F017FF00220421380085
:1016600002F012FF01220321380002F00DFF7B5926
:10167000584603437B517B59504603437B517B596A
:10168000102213437B517B5908210B437B513C674C
:10169000534D280002F050FF2B680326B3432B6004
:1016A0005049280002F054FF4F49280002F05AFF29
:1016B00000220221280002F060FF6B6F0422134316
:1016C0006B674A494A4D0022280002F061FFEB692E
:1016D00050229343EB61EB69493A93433343EB6107
:1016E000EA6B444B1A4080231B011343EB63424BCC
:1016F0002B610C360296019400943A2300220021BB
:10170000280003F045F81F2305220021280003F0DC
:101710006FF81F2305222021280003F053F82B6CBB
:10172000B343524613432B64344803F041FA05B0E7
:10173000F0BCBB46B246A946A046F0BD0000044836
:101740006C590010000104487459001078590010B9
:101750007C5900108859001000020448FFFF000067
:10176000905900109459001098590010305A0010E8
:1017700000040448FF040000385A00103C5A0010CE
:10178000405A00109C59001000010050B859001038
:10179000BC590010C0590010AC590010C4590010B9
:1017A00000020050E0590010E4590010E859001000
:1017B000D4590010EC59001000030050085A0010D2
:1017C0000C5A0010105A0010FC590010145A001046
:1017D00000040050245A0010285A00102C5A0010FF
:1017E0000000015084590010805900106059001009
:1017F00000020048FFE0FFFF43820000445A00104F
:1018000010B57F4A7F4C0021200002F0E5FB00224A
:101810000021200002F063FE7B4A0A21200002F032
:10182000DBFB00220A21200002F059FE774A0D213D
:10183000200002F0D1FB00220D21200002F04FFE1B
:10184000734A0121200002F0C7FB00220121200081
:1018500002F045FE6F4A0221200002F0BDFB00228B
:101860000221200002F03BFE6B4A0321200002F01F
:10187000B3FB00220321200002F031FE674A04215D
:10188000200002F0A9FB00220421200002F027FE24
:10189000634A0521200002F09FFB00220521200061
:1018A00002F01DFE5F4A0621200002F095FB002297
:1018B0000621200002F013FE5B4A0721200002F0FF
:1018C0008BFB00220721200002F009FE574A082165
:1018D000200002F081FB00220821200002F0FFFD21
:1018E000534A0921200002F077FB00220921200041
:1018F00002F0F5FD4F4A504C0021200002F06CFB35
:1019000000220021200002F0EAFD4C4A01212000C3
:1019100002F062FB00220121200002F0E0FD484AB3
:101920000221200002F058FB00220221200002F0D8
:10193000D6FD444A0321200002F04EFB0022032181
:10194000200002F0CCFD404A0521200002F044FBBB
:1019500000220521200002F0C2FD3C4A3C4C0A2135
:10196000200002F039FB00220A21200002F0B7FD1E
:10197000384A0B21200002F02FFB00220B2120000F
:1019800002F0ADFD344A0221200002F025FB0022C6
:101990000221200002F0A3FD304A0421200002F0C1
:1019A0001BFB00220421200002F099FD2C4A052196
:1019B000200002F011FB00220521200002F08FFD23
:1019C000284A0621200002F007FB00220621200001
:1019D00002F085FD244A0821200002F0FDFA0022D1
:1019E0000821200002F07BFD204A0921200002F09E
:1019F000F3FA00220921200002F071FD10BDC0465B
:101A0000C85A001000000440885A0010B05A001054
:101A1000D05A0010D85A0010E05A0010B85A0010DE
:101A2000A85A0010805A0010785A0010E85A001086
:101A3000F05A0010A05A001000010440985A0010FB
:101A4000905A0010F85A0010C05A0010685A00103E
:101A500000020440705A0010085B0010505A001039
:101A6000005B0010105B0010585A0010605A001004
:101A700030B585B001A8044B020032CB32C202F06F
:101A800099FB05B030BDC046185B001010B5FFF7DC
:101A90008DFC002010BD70B505000E001C0004ABCD
:101AA00018888D421FD395421ED2521A91B2A0427D
:101AB0000CD2AE1BB6B2201A80B270434B08C018CD
:101AC00002F01AFD80B2201A80B20DE0AD1BADB25B
:101AD000001B80B268434B08C01802F00DFD80B2B5
:101AE000001980B200E0200070BD70B51D0004AB8D
:101AF0001B7888421DD990421DD2AB420CD2441AA9
:101B0000E4B2E81AC0B26043511AC9B202F004FD4F
:101B1000C0B2281AC0B20DE0441AE4B2581BC0B2D9
:101B20006043511AC9B202F0F7FCC0B24019C0B20A
:101B300000E0280070BD1800FCE7030008008B429D
:101B400000D21800704770B505000C000A2A15D89D
:101B50000A20801A68434A43801805300A2102F09F
:101B6000CBFC80B284420AD1854202D9013080B2D6
:101B700005E0854203D2013880B200E0002070BD4C
:101B80000B8843400B80082202E05B080B80013A7F
:101B9000002A07D00B88D807F7D55B0802484340D6
:101BA0000B80F4E77047C04601A0FFFF002803D078
:101BB000044B20225A607047024B802292035A60E5
:101BC000F9E7C0460001044070B5164B1B78002BA6
:101BD00014D0012B16D0144B1B78002B0DD0134DB5
:101BE0002C88134B134A12785200D05A6043642158
:101BF00002F082FC80B224182C8070BD0A4B0122B6
:101C00001A70E8E70C4B1B88002B03D1064B01220E
:101C10001A70E0E7074B1B782D2BDCD9024B002212
:101C20001A70D8E7971100209A110020E00F0020C9
:101C30000010002032110020FA10002010B5194BBE
:101C40001B78002B0BD1184B1B88002B07D1174B8F
:101C500001221A70164B174A12781A701DE0134BA6
:101C60001B78002B19D0124B1B78002B16D0104A72
:101C7000013B13700E4B1B78642058430D4B1978B1
:101C800002F04AFC83B26420C01A80B20A4C238856
:101C90005843642102F040FC208010BD034B002219
:101CA0001A70E7E732110020F80F0020931100208E
:101CB000921100203F060020E00F0020084B1A7808
:101CC000FD2A00D9FD22074B18211970064B0F3948
:101CD0001970064B064909781970064B1A7070473F
:101CE0003611002038060020360600200A11002098
:101CF000300600202211002010B50F4B1B889BB22C
:101D0000002B15D00C4B198889B20C4B1B88AB20CB
:101D10008000584302F0F0FB094B1880094B1B78F8
:101D2000002B04D0064A99005B185B00138010BD9D
:101D3000034B00221A80F1E7FC1200202806002045
:101D4000FA100020CC11002009490A889308D21A01
:101D500092B20A80074B1B889B189BB20B809B0892
:101D6000054A1380054A57214B4313807047C046EC
:101D7000D80F0020F2120020DA0F0020F00F002010
:101D800010B55B4B1A8892B25A4B1B889BB29A4291
:101D90003ED2594B01221A70584B1A78531EDBB2AF
:101DA000012B39D9052A37D0042A35D0544B0021CC
:101DB0001970534B1978002915D0524B1B880A3BD8
:101DC0009BB291204000834208D84F4B18884F4B5C
:101DD000984203D84E4B1B78002B04D04D48037813
:101DE0000224234303704C4B1B88642B1CD94B4BA0
:101DF0001B78002B18D1002916D0494B1B78013BCA
:101E0000DBB2812B10D947490B7801330B700EE000
:101E1000394B00221A70BFE7434B1B78002BC5D10A
:101E2000374B01211970C4E73E4B002119703D4B1F
:101E30001B78FA2B04D937490B78042003430B7025
:101E40003A4B1B78002B20D1394B1B885A2B08D9D1
:101E5000072A06D0062A04D0364A13880133138095
:101E600002E0344B00221A80334B1B88002B02D037
:101E7000304B00221A802F4B1B887D2B05D9254A19
:101E8000117880235B420B4313702C4B1B780F2B74
:101E900010D9274B1B88092B0CD8294A13780133FA
:101EA000DBB213700A2B08D91A4A137808210B43A6
:101EB000137002E0224B00221A70224B1B78002B79
:101EC00003D0214B1B78022B00D010BD1F4B1B7879
:101ED000132BFAD81D4A013313701D4B1B88D32BCB
:101EE000F3D90C4A137810210B431370EDE7C04669
:101EF000F21200204A060020C511002035110020F2
:101F0000371100201A060020DE0F00208A02000090
:101F10000E1100203C060020E20F00209611002048
:101F2000321100201A110020101100209E110020F3
:101F3000F80F0020F20F0020FA10002017110020E7
:101F40002D110020A111002031110020A01100202E
:101F5000EA0F002010B582B01B4B1C88A4B2C82227
:101F60001A4B18885623FF330093194B520028212F
:101F7000FFF791FD174B1880002C0BD0210016485D
:101F800002F0BAFAC0B2154B1870782805D9782239
:101F90001A7002E0114B00221A70114B00221A80B5
:101FA0000E4B1C78002C0AD00E4B1878001B002812
:101FB00005DD0002210002F0AFFA094B1880094B41
:101FC0001C7002B010BDC046F6120020FA100020AE
:101FD000AE1000002606002035DF00003211002080
:101FE000A40F00203311002030B583B0134B1B78B1
:101FF000002B21D09A1ED2B2910051184900023311
:10200000DAB29300D21852000D4B002018700D4B1D
:102010001888904209D90C4B1B78002B02D0084B32
:1020200001241C70094B00241C70074C23780025E8
:102030000095FFF730FD207003B030BD460600204C
:1020400094110020FA1000200A1100202211002013
:1020500030B583B0134B1888134C21880822FFF742
:1020600072FD0300208011485843C00A80B2104B13
:102070001880104B1978104B1A78914204D30F4BEB
:1020800000221A7003B030BD0C4C23789500521911
:1020900052008D004919490000250095FFF7FBFC0F
:1020A0002070EFE7EA0F0020DC0F0020102700006F
:1020B000FA0F0020301100202F1100200A110020FB
:1020C00010B56D4A13780133DBB213706B490A788F
:1020D0000132D2B20A706A49097800291AD0032B5A
:1020E00018D9654B00211970654B1970654B1B7829
:1020F000002B19D0012A17D9604B00221A70614BAE
:102100001A70614B1A78082A00D9B0E093005F4A30
:10211000D3589F460029E9D1022BE7D9564B1970B5
:10212000574B01311970E1E7002BEAD1012AE8D9B8
:10213000524B00221A70534B01321A70E1E7544B94
:102140001878FFF733FD10BD514B1878002804D0E4
:102150004B4B1878FFF72AFDF5E7FFF727FDF2E76D
:102160004B4B1878002803D04A4B1B78002B02D128
:10217000FFF71CFDE7E7434B1878FFF717FDE2E791
:10218000434B1878002803D0424B1B78002B06D114
:1021900000280AD03A4B1878FFF708FDD3E73D4BEB
:1021A0001878C0B2FFF702FDCDE7FFF7FFFCCAE7E2
:1021B000374B1878002803D0364B1B78002B06D1FC
:1021C000002809D02E4B1878FFF7F0FCBBE72D4B09
:1021D0001878FFF7EBFCB6E7FFF7E8FCB3E72D4B09
:1021E0001B78002B05D02B4B1878C0B2FFF7DEFC14
:1021F000A9E7274B1878FFF7D9FCA4E7254B1B78F4
:10220000002B04D01F4B1878FFF7D0FC9BE7204B26
:102210001878FFF7CBFC96E71E4B1B78002B08D1F4
:102220001B4B187800280AD0154B1878FFF7BEFC16
:1022300089E7184B1878C0B2FFF7B8FC83E7FFF7BF
:10224000B5FC80E7134B1B78002B08D1104B187896
:10225000002809D00A4B1878FFF7A8FC73E7094B50
:102260001878FFF7A3FC6EE7FFF7A0FC6BE7084BBD
:102270001878FFF79BFC66E7211100201911002058
:10228000201100201811002028110020245B0010CC
:10229000291100202C13002010B5754B1B78002B42
:1022A0001DD0744B1B781433734A1370724B1B7818
:1022B000822B02D9704B82221A70704BF4221A7052
:1022C0006F4BAB3A1A706F4B19782820FFF735FC2B
:1022D0006D4B18706D4B684A12781A7010BD654BC3
:1022E00018786B4B18706B4B1B78002B0ED16A4A19
:1022F0001288002A0AD1604B32321A70674B1A706A
:10230000674B00221A80674B1A80CFE7002B6FD0F3
:10231000614B1B88644A1288934219D2634B042292
:102320001A70634A1378591C1170042BBED9524B92
:102330001A785A4B1B789A4206D24F4B01321A70C8
:102340005B4B00221A70B1E7544A01331370F7E770
:10235000544909888B4217D29B1A9B00DBB2534A1F
:10236000137053490A78501C087093429ED2424B16
:102370001B784A4A1278934202D23F4A01331370C3
:102380004B4B00221A7091E74A4A1288934216D2A8
:10239000D31A9B00DBB2454A137045490A78501C9A
:1023A0000870934200D381E7334B1B78282B02D966
:1023B000314A013B13703E4B00221A7076E73B4BCB
:1023C00004221A703A4A1378591C1170042B00D851
:1023D0006CE7294B1B78282B06D9274A013B137041
:1023E0002E4A1378013B1370314B00221A705DE7BF
:1023F0002E4B0A221A702E4A1378591C11700A2B80
:1024000000D853E72C4B1988002925D02A2903D955
:10241000194A1378013B1370214A13885C1C1480FD
:10242000092B15D91D4A13780A3313701A4B1B88D0
:10243000584302F071F880B21A4B18800200143A27
:10244000194B1A8014301B4B1880124B01221A7042
:10245000174B00221A7029E7104B1B78772BF7D8FF
:1024600005490A7801320A700C4A01331370EFE70C
:1024700014110020C9110020450600203806002054
:1024800036060020300600200A110020221100200C
:10249000CB110020CA110020F80F002044060020B4
:1024A000F6100020F4100020F2100020C7110020C8
:1024B000C8110020F0100020FA10002070B582B082
:1024C0000500D74B43221A709870032800D144E1CD
:1024D00043D8012800D1F5E202283CD1D14B00229B
:1024E0001A70D148C278D14B1A700279D04B1A7049
:1024F000437901221C001440CE490C705C08144042
:1025000099081140CC4D2970DD081540190911407A
:10251000CA4E317059091140C94E317099090A40AB
:10252000C8490A70DB09C84A13708379DBB2C74A0D
:102530001370C74A1278934228D1BB4BDA79C54B46
:102540001A70002C4ED0C44B1B88452B4AD8C34B65
:1025500007221A705EE003250EE004280BD1C04B61
:102560001A78AF4BDA7000221A7115325A711E3286
:102570009A71072500E00325A94B5D70B94B012234
:1025800052421A80B84B00221A70AEE2B04A137061
:10259000B64A10786422504380B20009C6B2B448EB
:1025A0005843B44B198801F0A7FF0109C9B23000A4
:1025B000FFF7C3FA0600B04B1870BB20704380B21F
:1025C0008F2101F099FFFF231840AC4B18801B8826
:1025D0009BB2BB2B02D9A94BBB221A803236A84B27
:1025E0001E70AAE7002D11D09B4B1B885A2B0DD9CA
:1025F000954B1B78002B03D0A24A1278002A01D1F8
:10260000002B07D1954B06221A7003E0864B1A7AED
:10261000924B1A70002C02D19B4B00221A70824BF5
:10262000597A9A4A1170997AC9B2994A1170DA7A2C
:10263000984B1A70984B18881A78794BDA70000901
:10264000302202401A71954A12785A71824A1088D3
:1026500012789A71000A07220240DA71904A1278C1
:10266000012002401A728F4A107840001A7A024301
:10267000D2B21A721A7A8C480478240110202040B1
:1026800002431A721A7A8948047864012020204093
:1026900002431A721A7A86480478A4014020204026
:1026A00002431A72834A12889208D2B25A720129DE
:1026B0004AD0814B1A785A4B9A72804A1388DBB2FF
:1026C000574CE37213889B083F229343DBB2E279B5
:1026D0001343E3717A4A1388127822731B0A6373D7
:1026E000684B1B78A373774B187864235843FE21FB
:1026F00001F012FFC0B2E073734A1388127822749B
:102700001B0A6374714B1B78DBB2A374544B1B78A8
:10271000E3746F4B1B7823756E4A1368DBB26375E5
:1027200013681B0ADBB2A37513681B0CDBB2E375DD
:10273000694A1388127822761B0A6376674B1B78E6
:10274000DBB2A3761B2517E7654B1888093101F02A
:10275000D3FEC0B2324B9872AFE701F08FFB614BF2
:1027600000261E703E4A137801210B4313705E4B06
:1027700002221A702B4B013A1A702B4C23791B0240
:10278000E2789B189BB2594A138064205843572122
:1027900001F0B2FE80B2564B18801B88643B554A4C
:1027A0001380A3791B0262799B18534A1380E27944
:1027B0002E4B1A70264B1E70237A012218001040EF
:1027C0004E490870590811404D4801709908114050
:1027D0004C480170D90811404B480170190911404B
:1027E0004A48017059091140494801709909DB09AB
:1027F000484803700A420FD1474B19321A700A4AEF
:10280000937A5B0045490B80D47AE4B2444B1C7048
:10281000154B01221A709AE03F4B1A221A70EEE70C
:10282000A81100202B1100203811002036110020A3
:1028300026110020291100201311002096110020DC
:10284000A1110020A21100201F1100209C110020C6
:102850009D110020C9110020FA1000203511002020
:102860003C060020F60F0020271100203206002031
:10287000A0252600F00F00203006002018060020BA
:102880003106002032110020CA1100204606002027
:1028900031110020A3110020DA0F002017110020B1
:1028A0002C1300203913002094110020C5110020A2
:1028B000C6110020EA0F00209F110020EA1200201C
:1028C000E20F002036130020F80F002037130020FD
:1028D0002E1100201C130020E00F002020130020E8
:1028E000FA0F00203D0600202A110020EE0F0020E4
:1028F0004A060020EC0F0020280600209911002035
:102900009711002041060020A4110020141100207E
:10291000151100203B06002032130020001000207B
:1029200098110020884A1378013B88495B005B5A64
:102930001B02107801384000405A60431B1A1B0AE2
:1029400010784000435213780133DBB213707E4B92
:102950001B78DBB2772BE5D97D4C227B7D4B1A703F
:10296000227B7D4B1A70627B7C4B1A70627B7C4BA6
:102970001A70A07BC0B218230093AA3364220021EE
:10298000FFF7B3F8774B1870E07BC0B209230093D0
:10299000403364220021FFF7A8F8734B18703223EC
:1029A000E25CD2B2714B1A703323E15C704B197048
:1029B0003423E15C6F4B19703523E15CC9B26E4B77
:1029C00019703623E35CDBB26C4803705B005B1A62
:1029D000DBB29B1A6A4A13703723E05CC0B2193B22
:1029E0000093E13364220021FFF77FF8654B1870F4
:1029F0003923E25C644B1A703823E35CDBB24F2B63
:102A000005D8604BA5221A705F4BA33A1A70504C40
:102A10004D23E35C1B024C22A25C9B189BB25B4AD9
:102A2000138019003C395A4A11805A4A13804F23A7
:102A3000E15C0902013BE35CC91889B2564B19807D
:102A4000FA20400101F068FD544B18805023E25CED
:102A500051084F3B19405248017092081340514AA7
:102A6000137006D0474B1B78A42B02D8454BA522E8
:102A70001A704D4B434A12781A70354B5122985CAC
:102A80004A490870995C4A4A11705222995C494A35
:102A9000117053229A5C484B1A70484B1B78002BDC
:102AA0000CD02B4B54229B5CDBB2454A1370642B39
:102AB00000D861E5130064221A705DE5404B0022E6
:102AC0001A7059E53F4B1A783F4BDA70042553E5ED
:102AD0001D4C2378DBB23C4AD05CC0B23B49FFF7C7
:102AE0004FF823780133DBB22370174B1B78DBB22E
:102AF000AB42EDD3354A13881178334A51556C1CDB
:102B00001B0A1355324B00221A70324A8A235B008B
:102B1000D3581B0E7F221A401E239B1A0235AB424C
:102B200004D22D4B00221A7002B070BD00239C42CB
:102B3000F7DB254AD25CD2B22648C0214900425078
:102B40000133DBB2F3E7C04627110020001000205C
:102B50003811002030110020430600202F110020E2
:102B60004206002039060020370600200D11002003
:102B70000F1100200B110020111100201211002054
:102B80000C1100203F060020340600202206002001
:102B9000200600201E06002024060020E80F00204A
:102BA000251100201B110020400600201C110020D0
:102BB00032130020281100203E06002015110020AD
:102BC000161100202B110020A8110020F60F002064
:102BD0002C110020000200483411002070B52F4B4A
:102BE0001B78002B3ED02E4B012252421A802D4BD7
:102BF0005D78EDB22C4B00221A700CE02A4C237841
:102C0000DBB2284AD05CC0B22549FEF7B9FF237871
:102C10000133DBB22370244B1B78DBB2AB42EDD324
:102C20006A1C204B9A5C12025B5D9B181C4A12883E
:102C3000934207D0194B00221A701C4A13780133B3
:102C4000137013E0194B00221A70194B1B78002BDC
:102C500002D1174B01321A70124B9878C0B2FFF7AD
:102C60002DFC03E0114A1378013313700F4B1B78CE
:102C70001E2B04D80E4B1B78002B0BD070BD01F01F
:102C8000FDF80C4B00221A700B4A137820210B43DD
:102C90001370EFE70020FFF711FCEFE7341100207D
:102CA000F40F002038110020271100201D110020F2
:102CB0002A1100203D0600203C06002070B582B09D
:102CC000204B1888C72807D91F4B18221A701F4B92
:102CD0000F3A1A7002B070BD1D4E33788008C0B232
:102CE0001825009532220A21FEF7FFFE164C2070AF
:102CF0003378184A1078009546221421FEF7F5FE25
:102D00002378834201D9104B1870134E33780D4A43
:102D100010888008C0B20925009532220A21FEF7EA
:102D2000E4FE0A4C207033780A4A10780095462257
:102D30001421FEF7DAFE23788342CBD9034B1870B7
:102D4000C8E7C046FA1000203806002036060020EA
:102D500039060020321100203706002010B5314B13
:102D60001C78314B1B78002B0ED0304B1B78002B7E
:102D70000AD12F4B1A882F4B197878235B1A9A4265
:102D800002DD2A4B01221A702B4B1B78002B3AD103
:102D9000264B1A78002A03D1284B1B78002B31D000
:102DA000234B1988264B1B784B43544363431B0A20
:102DB0005801C01A8000C018C000224B198801F0C9
:102DC0009BFB84B22409FFF779FF1F4B1A78A242BC
:102DD0001CD21E4B1A701E4B1B78002B19D01B4B9C
:102DE0001B78164A1278934201D9144A1370174B74
:102DF000124A12781A70154B1B78002B0DD0154B08
:102E0000FE221A7010BDFEF7DFFEC1E70F4B1C70EB
:102E1000E1E70A4B00221A70EDE70E4B00221A7010
:102E2000F0E7C046361100201511002032110020B5
:102E3000E00F0020161100209911002095110020AC
:102E40003E060020F00F0020300600200A1100206E
:102E5000961100202211002070B5304B1B78002BFA
:102E60004DD12F4B1B78002B0ED02E4B1B78002BF7
:102E70000AD12D4B1A882D4B197878235B1A9A4268
:102E800002DD284B01221A70294B1B78002B02D03F
:102E9000244B01221A70244B1888002803D0214BA0
:102EA0001B78002B03D1234B1B78002B26D0224B01
:102EB0001B7858433C2101F02FFB040085B2FFF73B
:102EC000FDFE1E4B1A78AA421CD21D4B1A701D4BD8
:102ED0001B78002B19D01A4B1B78164A1278934294
:102EE00001D9144A1370164B124A12781A70144BF7
:102EF0001B78002B0DD0144BFE221A7070BDFEF70C
:102F00009DFEAEE70E4B1C70E1E70A4B00221A70E3
:102F1000EDE70D4B00221A70F0E7C0464106002095
:102F20001511002032110020E00F002016110020A2
:102F300014110020951100203611002030060020C9
:102F40000A110020961100202211002010B5194B03
:102F50001A78002A26D0184B1B789B189B10174A0A
:102F60001380174B1B78A42B02D8154BA5221A707F
:102F7000FEF764FE124B134A12781A700F4B1C882E
:102F8000114A12881A80FFF799FE104B1A78A24254
:102F900009D20F4B1A700E4B1B78002B06D00D4B2D
:102FA000FE221A7010BD0A4B1C70F4E7094B002278
:102FB0001A70F7E73211002036110020E00F0020D0
:102FC0003F06002040060020E40F002030060020CD
:102FD0000A1100202211002070B53C4B1B78002BF9
:102FE0000ED03B4B1B78002B0AD13A4B1A883A4B38
:102FF000197878235B1A9A4202DD354B01221A7048
:10300000364B1B78002B02D0314B01221A70314B0A
:103010001C88002C03D02E4B1B78002B03D1304B87
:103020001B78002B43D02F4B1B78142B07D8D801CB
:10303000C01A80B20A2101F05FFA2A4B1870294B9E
:103040001B785B00FE214900C91A89B2264B1B7808
:10305000002B05D01E4B1B788B4229D8C91A89B288
:103060000A3189B26443081901F046FA040085B2B6
:10307000FFF724FE1D4B1A78AA421BD21C4B1A7074
:103080001C4B1B78002B18D0194B1B78144A127854
:10309000934201D9124A1370154B114A12781A70D3
:1030A000134B1B78002B0CD0134BFE221A7070BDF3
:1030B0000021D5E70E4B1C70E2E7094B00221A7085
:1030C000EEE70D4B00221A70F1E7C0461511002003
:1030D00032110020E00F00201611002014110020F2
:1030E00095110020361100203B06002030060020FC
:1030F0000A110020961100202211002070B53A4BD1
:103100001B78002B61D1394B1B78002B0ED0384B2C
:103110001B78002B0AD1374B1A88374B1978782344
:103120005B1A9A4202DD324B01221A70334B1B7834
:10313000002B02D02E4B01221A702D4B1D78002D32
:1031400003D12F4B1B78002B3ED02A4B1C88002C20
:1031500006D02C4B187860433C2101F0DDF984B295
:10316000294B1B786B43294A128853431B0A580189
:10317000C01A8000C018C000254B198801F0BCF9A6
:1031800080B20009844200D20400FFF797FD214B72
:103190001A78A2421CD2204B1A70204B1B78002BAD
:1031A00019D01D4B1B78164A1278934201D9144A44
:1031B0001370194B124A12781A70174B1B78002B98
:1031C0000DD0174BFE221A7070BDFEF737FD9AE73F
:1031D000114B1C70E1E70A4B00221A70EDE7104B0F
:1031E00000221A70F0E7C0464106002015110020A9
:1031F00032110020E00F00201611002014110020D1
:10320000951100202611002036110020FC0F00200F
:10321000F00F0020300600200A1100209611002037
:1032200022110020F0B583B0454B1B885A2B05D8DE
:10323000462B79D9434A1278002A75D1414A12782F
:10324000002A10D03F4900220A703F490A803F49B6
:103250000A803F49FA20400008803E490A803E49E2
:103260000A803E4A13803D4A1088C01A82B200B2DA
:10327000354B188036490B88D3181BB20B80FA21C6
:1032800089008B4252DD324B1980304B1988521A1B
:1032900015B2304A1580188084002D4B0020185E2E
:1032A00002F0ECFA2E4A2F4B01F0F0FF06000F005F
:1032B000200002F0E3FA32003B0001F087FC060038
:1032C0000F0068004019400002F0D8FA32003B00BD
:1032D00001F07CFC02F09CFA00B21F4B1880002821
:1032E0002ADB1D4B00229A5EFA239B009A4203DDE3
:1032F000194BFA2292001A801B4BF4221A701B4BB6
:10330000AB3A1A701A4B1B4A12781A70124B0020F3
:10331000185E8010C0B2FE2300930023FA22002121
:10332000FEF7E3FB144B187003B0F0BD002BACDAD2
:10333000074B00211980A8E700221A80D1E7C04678
:10334000FA100020350600209E0F0020A20F00205A
:10335000A00F00209C0F00209A0F0020F8100020E2
:10336000333333333333E33F38060020360600204F
:103370000A110020300600202211002030B583B051
:103380003D4AC7239B00D05880108005800D3B4BE1
:1033900018803B4B1B78002B01D103B030BD394B5B
:1033A0001A78394B19788008FF2300930023FEF721
:1033B0009CFB364B1870364B1B78002B14D0354ACB
:1033C0001370354B1B78002B06D0344B1B78002B29
:1033D00002D1304B00221A702E4B1878002810D1E1
:1033E0002C4B00221A70D8E72D4B1B78022B03D0F0
:1033F000284B00221A70E4E70028F9D0254B1870FA
:10340000DFE7284B1B7800930023FF220021FEF703
:103410006CFB04000500244B1B788342E0D2234B55
:103420001888FE280FD9224B30221A70214B273AD8
:103430001A701C4B1B78AB421BD21B4A13701E4BDD
:10344000FE221A70CCE7C0B230230093C433FF22AF
:103450002821FEF74AFB164B1870144B18780923E5
:1034600000934033FF222821FEF73FFB114B1870D9
:10347000DFE70D4B1C70E2E700080348EA0F00206D
:10348000A111002042060020430600209F110020C9
:10349000A311002010110020A211002032110020E1
:1034A00031110020300600200A110020FA100020FF
:1034B00038060020360600202211002010B5C34B2C
:1034C000C2221A70C24B793A1A70C24B00221A708B
:1034D000C14B1A70C14B1B78002B21D0C04B1B88ED
:1034E000F52B1DD9BF4A1178C9B2BF4A1278D2B2A2
:1034F000914215D2BD4A1278002A11D10B33DBB2AA
:10350000BB4A13705B09BB4A13701378DBB2052BFF
:1035100002D9130005221A70B74B01221A7002E07B
:10352000B54B00221A70B54B1B78062B02D0B44A5B
:1035300001211170B34A1278002A1DD1082B3BD803
:103540009B00B14AD3589F46FFF708FC34E0FFF7D1
:1035500083FC31E0FFF7FAFC2EE0FFF73DFD2BE0A6
:10356000FFF7CCFD28E0FFF75DFE25E0FEF794FEB7
:1035700022E0FEF7A3FB1FE0A44B1A786423534319
:103580001B11DBB2934A13708F2B02D913008F22C9
:103590001A709F4B1B78002B02D08E4B00221A70A2
:1035A0009C4B1B788C4A1370FD2B02D91300FE2212
:1035B0001A70994B32221A70984B1B78012B00D14C
:1035C00095E0022B00D09CE0FFF7D8FEFEF70CFD43
:1035D000934B1B78022B00D19BE0032B00D19EE084
:1035E000904B1B889BB2904A1288934204D28C4B1A
:1035F0001B78042B00D1A6E08C4AC1239B00D35832
:103600009BB29B088A4A1278002A11D0894909780E
:10361000994200D3A0E088490B7801330B70864BA8
:103620001B789A4204D87A4A137840210B431370CE
:103630006C4B1A789300D2185301804A1360804A69
:1036400011685B1813607F490A68013A0A60002A12
:1036500007D19B097C4A136040220A60784B002204
:103660001A607A4B1B78002B13D1694B1B78782298
:103670001A420ED1764A1278002A0AD0754A127878
:10368000002A06D0002B00D16AE0734B1B78002B78
:1036900066D1724BC2221A70714BB93A1A70524BF2
:1036A00000221A706F4B1A70694B1B78002B00D1E7
:1036B000E6E0664A1278002A13D1554A127878213A
:1036C00011420ED1464A1288002A00D0D8E0414A61
:1036D0001278002A00D0D3E0634A1278002A00D082
:1036E000CEE05B4B00221A7000F0C8FB10BDFEF765
:1036F000AFFC5E4B1B78002B00D167E7FFF73EFE67
:1037000064E75A4B1B78002B00D15FE7FFF736FECA
:103710005CE7574B28221A70414B253A1A70544BDC
:103720001B78002B03D0524A013B137058E73C4BE7
:1037300004221A704F4B023A1A70354A137801214D
:103740008B4313704CE7324A137820210B431370DC
:10375000494B01221A704FE7374B002119705EE781
:10376000464B1B788F2B02D9444B8F221A70194B72
:103770001A78424B1B789A4201D9164A1370164B9D
:103780001B78FF2B1ED0114B1B78172B02D80F4B29
:1037900018221A700E4B1B78082B02D80C4B0922EA
:1037A0001A700A4B1A782D4B1A70094B1A782C4B49
:1037B0001A70084B1A780C4B1A70074B1A78294B61
:1037C0001A7071E7044BFE221A70DCE738060020FD
:1037D000360600200A1100202211002025110020A9
:1037E000F80F0020201300202D13002010110020BE
:1037F0002411002035130020311300203511002042
:10380000350600209E110020485B00103306002082
:103810003C0600203A06002036110020311100201D
:103820002A110020F2120020EC0F002000040348AF
:10383000340600203106002023110020041100204E
:10384000FC1000202C060020001100202C1300206A
:103850003D06002013110020141100205606002000
:10386000550600202E13002036130020A31100203F
:10387000A60F00202B110020C611002030060020CA
:10388000002B00D032E70D4B1B78002B00D02DE72A
:103890000B4B1B889F2B00D928E70A4B1B78002B6A
:1038A00000D123E7084B01221A70084B00221A703E
:1038B000074B1A7000F01CFB18E7C0462C130020C1
:1038C000F80F00200A1100203D06002036130020CA
:1038D00034130020030043434B4343431B0C80221B
:1038E0005200521A5043C0188030000A704770B519
:1038F000040000290CD000280BDB80235B009842D9
:1039000000DD1800002906DBFFF7E4FF002C0ADBCE
:1039100070BD4042F1E7494280256D00281AFFF74B
:10392000D9FF281AF2E74042F2E7000010B5444BF5
:103930001B78772B1CD9434B1A88434B1A80434B77
:103940001A88434B1A80434B002119803D4B1B883A
:103950009BB29A4233D29B1A9800C01840013E4B4A
:10396000198800F0C9FD80B2A0282CD9A0202AE037
:10397000344B188880B2394C21880422FEF7E3F8D2
:1039800020802F4A13780133DBB21370782B02D0DA
:103990002D4B1880D3E7324B1B78002BF8D0314BDE
:1039A0001B88984207D9304B1B88984203D22F4B73
:1039B00000221A70ECE72D4B01221A70E8E72C4B1D
:1039C00000221A8000202B4B197814291ED00029C0
:1039D00005D0294B188800F09FFD254B1880274BF8
:1039E0001B78143B5900C9188900214B1888FFF730
:1039F0007EFF80B2174B1880214B1880214B188016
:103A0000214B1B784343214A138010BD204B1B8858
:103A100083420BD2C31A9BB2632B0AD8144C164BA9
:103A20001888142100F068FD2080D8E71B1A9BB28B
:103A3000F2E70F4C21880522FEF785F82080CEE7BB
:103A4000A70F0020EE120020DE0F0020220600202B
:103A50001A060020E00F0020240600201C0600208B
:103A6000A4110020200600201E0600200E110020B8
:103A7000E60F002008110020D60F00200F110020B3
:103A8000E40F0020E20F00203E060020FC0F002083
:103A9000A80F002010B52E4B1B889BB22D4A9342D5
:103AA00004D82B4B1B889BB2092B2AD82A4B002207
:103AB0001A80FEF721F9FEF74DFAFEF745F9274B7C
:103AC00018780001142100F027FD254B1870254BB4
:103AD00018880001142100F01FFD234B1870FFF718
:103AE00025FF224B1A78511C197003231340022B17
:103AF0002AD00FD8002B12D0012B12D1FEF7E0FAFA
:103B00000FE0134B198889B2194800F0F5FC124BED
:103B10001880CEE7032B04D1FEF732F901E0FFF75E
:103B20005DF8FFF7CBFC134B9978134A1180D978D5
:103B3000124A11801979124A11805979114A11805B
:103B40009A79114B1A8010BDFFF748F8E9E7C04693
:103B500052060020FFEF0000F80F00202013002085
:103B600017110020E81200202E1100201E11002045
:103B700090D0030024130020900F0020920F00200B
:103B8000940F0020960F0020980F002070B5284B4E
:103B90001B785BB2002B16DB254B00221A70254BDD
:103BA0001B889BB2244A12889A4217D29B1A98000B
:103BB000C0184001214B198800F09EFC80B2A0285B
:103BC0000DD9A0200BE01A4A002313701C4A137071
:103BD0001C4A13801C4B00221A701DE000201A4B57
:103BE0001B781A4A59008C5A194D2C808852154A54
:103BF0001188401880B21080114A1278142A0CD013
:103C00000F4901320A700133DBB20F4A1370132BD4
:103C100002D9130000221A7070BD844203D2094AEF
:103C2000001B1080EFE7074A00211180EBE7C04638
:103C30003D130020EE1200201A060020240600206A
:103C400008110020D60F002009110020AC0F002021
:103C5000A80F00200AE0254A1370254B01221A7094
:103C600004E0562B20D9224B00221A70214A8A23C5
:103C70005B00D3581B0738D41F4B1B78002B34D163
:103C80001C4A8E235B00D358DBB2194A1178CAB2A2
:103C90000129E6D0022A0FD0002AE7D1592BDAD029
:103CA000134B00221A70E1E7104A5370134A137045
:103CB0000F4B02221A70D9E7114A117802310B48D2
:103CC000435413780133DBB213701278D2B20B4B2A
:103CD0001B78DBB29A42C9D3094B00221A70044BFD
:103CE0001A70054B01321A70C0E770473811002076
:103CF0009B11002000020048341100209111002087
:103D00009011002010B5484B00E0013B002BFCD186
:103D1000FDF7BCFE002800D001BEA021C9050B683C
:103D2000424803408022920013430B6040490B68D5
:103D300003401A430A60FDF769FA00F0DDF93D4BD4
:103D400042221A703C4B00241C7000F0B5F83B4B2B
:103D50001C703B4B01229A603A4B00E0013B002B68
:103D6000FCD1394BC622920098583849084080212E
:103D7000C901014399508021890419609858344938
:103D800008408021C903014399508022D2041A605F
:103D9000A023DB050F22DA602E4A116B80235B0023
:103DA0000B431363274B00E0013B002BFCD12A4B54
:103DB0005A6801210A435A60284A9A60284B1B6FAF
:103DC0009BB2284A1380284A138012E0FFF742FF73
:103DD00016E0FFF7DBFE1AE024490B6801330B60A5
:103DE000214B1A801F4B1B88D31A9BB220498B4250
:103DF00015D8194B194A9A601E4B1B78002BE5D039
:103E0000154B164A9A601C4B1B78002BE1D1144BC2
:103E10001A6F92B2144B1B889342E3D9DCE7114B23
:103E20001A80FFF737FEE4E7804F1200FFFCFFFF28
:103E300000000448E4120020CC11002047060020B6
:103E400000000150C0D4010000E100E0FF00FFFFCE
:103E5000FFFF00FF0000014000000240FECAADABC2
:103E600000020448CE110020D0110020D4110020FF
:103E70006A180000341100203D1300200323034A78
:103E80001361034A1361034A136170470001005034
:103E9000000200500003005010B5054A137840217D
:103EA0000B431370034B00221A70FFF7E7FF10BD9E
:103EB0003C0600203D06002070B500F046F80A4997
:103EC0004A6A920801231340084A13704D6A02247B
:103ED0002C40234313704C6AA400042121400B435F
:103EE000137000F036F870BD00010440E0120020AD
:103EF00010B5FFF7E1FF0D4B196B802252000A430A
:103F00001A631A6B0A490A401A6309E0074B196BD6
:103F1000802252000A431A631A6B05490A401A6349
:103F2000044B9B68DB07F1D510BDC0460000014083
:103F3000FFFEFFFF000100500230800803D001386F
:103F4000FDD1C046C046C0467047EFF3108072B640
:103F5000704780F310887047064B1A898021490109
:103F60000A431A8148215A5A8020000102435A52BA
:103F70007047C0460000054010B50D4A13681B0A83
:103F8000FF210B400B480360126811400A4A116080
:103F9000002B08D01B02C918084800F0ADFA4000F9
:103FA000074B186010BD064B064A1A60FAE7C04678
:103FB000000301404413002040130020000024F4BB
:103FC000FC3F00200048E80110B5FFF7C5FFFDF7F2
:103FD0004FFD10BD70470000F0B5C64600B58B0818
:103FE000984604339B001E5803250D40ED00F8272A
:103FF000AF40BE431E50436F4F000326BE40B34345
:104000004367CB0810339B001F5807260E40B600AD
:104010000424B440A7431F501F585478B4402600CE
:104020003E431E500D4B98420ED00023D356002B1A
:1040300010DB434604339B0019581278AA400A4308
:104040001A5080BCB846F0BD036E01268E40B343C3
:104050000366EAE753688B404360EAE700020440E6
:1040600010B50C000DE0800808490B68084A1340A1
:1040700002021343074A13430B60044B1B685B00A7
:10408000FBD4A3008342EED310BDC0460003014021
:10409000FF000FC00000F03F30B50C000EE0012221
:1040A00090000A490B680A4D2B4092021343094ABB
:1040B00013430B60054B1B685B00FBD48300A342DA
:1040C00003D20028EBD00200EAE730BD0003014034
:1040D000FF000FC00000F03F014BC3225A6270473F
:1040E00000000140034BC0225A62024B5B6A5B072F
:1040F000FBD4704700000140034A938C01210B431D
:104100009BB293847047C0460010014010B5040074
:10411000FFF7E8FF054B186920431861034B1B6844
:104120005B00FBD4FFF7D8FF10BDC0460003014081
:10413000034B9B6803405A1E9341D8B27047C04658
:104140000003014070B504000D00FFF7CBFF154BD5
:104150001A68120AFF2010401968134A11402943B7
:10416000124A0A431A600F4B1B685B00FBD4A04243
:1041700014D82100FFF790FF0A4A13680C490B403E
:1041800024021C43094B23431360064B1B685B004E
:10419000FBD4FFF7A1FFFFF7EFFE70BD2100FFF793
:1041A0005FFFE9E70003014000FF0FC00000F03FA0
:1041B000FF000FC010B50400FFF794FF074A136813
:1041C00007490B40A1680B4361680B431360FFF77D
:1041D00083FF60782178FFF7B5FF10BD0003014031
:1041E000FFFFF0FF014B18687047C046FC3F0020FE
:1041F00010B5044B984200D010BD0420FFF786FF95
:10420000FAE7C0460000044870B505000C00FFF74F
:10421000EFFF80235B00EB602B68034A1340A4038D
:104220001C432C6070BDC046FF3FFFFF03680A0CB3
:1042300093430904090C1943016070470B684361FB
:104240004B799B06DB0F1B0543600B791B071B0F8C
:1042500043624B791B071B0F03624B79DB06DB0FB5
:1042600083610B791B09C36270470B6843614B790B
:10427000DB07DB0A43600B791B071B0F43620B79DB
:104280001B09C3627047000010B543680324A343B1
:10429000194341604369012A03D0044A1340436132
:1042A00010BD8022D2001343F9E7C046FFFBFFFF99
:1042B0004368302293430901194341607047F0B5C8
:1042C000C64600B54C1EE4B206686500EDB22F008C
:1042D0001037FFB203239846BB409C463300664626
:1042E000B3439C465378BB40664633431531CFB247
:1042F0000121B9408B439178B94019431935EDB28A
:104300004646AE40B143D378AB400B43A100C9B29F
:104310000F248C40A34312788A401343036080BC6F
:10432000B846F0BD1C318900401840687047000055
:1043300030B50B291AD889000D4B5B589F460325D1
:1043400000240DE0C0252D010A2409E0C025AD00A0
:10435000082405E00C25022402E0C025AD010C2450
:10436000A8214358AB43A2401A43425030BDC04637
:10437000785D001010B5A023DB05984200D010BD79
:104380000220FFF7C3FEFAE770B505000C00FFF747
:10439000F1FF80235B00EB602B68034A1340A4030A
:1043A0001C432C6070BDC046FF3FFFFF012303612B
:1043B0000B6843614B7BDB06DB0F1B0543600B7B0C
:1043C0001B071B0F43620B7B1B09C3624B7B1B0745
:1043D0001B0F03624B6883618B6814225340836414
:1043E000704703680A0C93430904090C19430160E0
:1043F0007047000010B543680324A343194341608C
:104400004369012A03D0044A1340436110BD80224E
:10441000D2001343F9E7C046FFFBFFFFF0B5C646E5
:1044200000B54C1EE4B206686500EDB22F001037EF
:10443000FFB203239846BB409C4633006646B34315
:104440009C465378BB40664633431531CFB20121B9
:10445000B9408B439178B94019431935EDB24646BE
:10446000AE40B143D378AB400B43A100C9B20F2497
:104470008C40A34312788A401343036080BCB84643
:10448000F0BD41637047000030B50B291DD889008D
:104490000E4B5B589F460024032510E00A24C025DC
:1044A0002D010CE00824C025AD0008E004243025CF
:1044B00005E002240C2502E00C24C025AD01A82152
:1044C0004358AB43A2401A43425030BDA85D001090
:1044D0004B6803658B6843650B68C364704710B510
:1044E000436F490003248C40A3434367436F8A40D2
:1044F0001343436710BD000010B5EFF3108272B68E
:10450000044B04245C6318625962986A82F3108831
:1045100010BDC0460000034010B5EFF3108272B624
:10452000044B00245C6318625962986A82F3108815
:1045300010BDC0460000034010B5044B984200D0A7
:1045400010BD8020FFF7E2FDFAE7C04600000150F1
:1045500070B504000D00FFF7EFFF0323E3602B6845
:10456000236070BD03689B0705D103680A68134385
:104570000360002070470120FCE710B5436F103145
:1045800001248C40A3438A401A43426710BD0000B7
:10459000F8B504000E00170000F052F9357A002D2E
:1045A00000D11035002F07D03379002B26D0316889
:1045B0002A00200000F088F8F379013B5B006D08C9
:1045C00001352D022B43144A1343E3637379013BF6
:1045D0001B068122520013436363B379002B13D06F
:1045E000626B013B1B0413436363A023DB00A363E3
:1045F00001235B42E36473892364F8BD31682A00B8
:10460000200000F00BF8D7E7626B7379013B1B04C5
:1046100013436363E9E7C04601000300F0B5DE46DB
:104620004F4680B583B083460C001500632941D9FD
:10463000002A01D101203EE0FFF7D4FD6421FFF7FD
:104640005BFF814664212000FFF756FF07001C4EE8
:10465000012301938023DB0000931C0000E0013C58
:10466000002C12D03900694348466043FFF744FFED
:10467000830A8005800D8022D2009342EFD88642C3
:10468000EDD9060001930094E9E7009F013F8023E4
:104690001B023B435A46136153690A4A1340013DCA
:1046A000AD022B43019E013E360433435A4653610B
:1046B000002000E0012003B0C0BCBB46B146F0BD05
:1046C000FF030000EF8000FCF0B5DE4657464E4683
:1046D0004546E0B583B08046894617000192FFF752
:1046E00081FD06004B465F43B8424ADD3900FFF7C3
:1046F00013FF0400012506E001352900794330004D
:10470000FFF70AFF0400204B9C42F5D8019F3900B7
:10471000614369433000FFF7EFFE8346631C9A460E
:104720003900594369433000FFF7E6FE4B46181A3B
:10473000C317C01858404B465A469B1ADA179B18A5
:104740005340984200DBA2468022D2005346D21A40
:104750008023DB0113434246136153690B4A134024
:10476000019F013FBF023B43013D2D042B434246C5
:104770005361002003B0F0BCBB46B246A946A04638
:10478000F0BD0120F6E7C046FE030000EF8000FC0C
:1047900070B504AC24784569094E3540002A0DD027
:1047A000102211431B0419430C43059B1B021C439D
:1047B000069B9B021C432C43446170BD0022F0E722
:1047C0002C8000FC70B584256D004459064E3440A1
:1047D00044514459054E34401B020B431206134307
:1047E0001C43445170BDC046FFFFFFF8C0C0FFF836
:1047F00070B586256D004459074E344044514459E4
:10480000064E34401B020B43120613431C43802305
:104810005B052343435170BDFFFFFFF8C0C0FFEFAE
:1048200010B5064B984200D010BD0820FFF76EFC73
:104830000820FFF77DFC0028FAD1F5E708000048C2
:1048400010B504009023DB0598420CD0084B984229
:1048500009D00323E360E368DB07FCD5236C0F2258
:104860009343236410BD0348FFF7DAFFF1E7C04626
:10487000000200480800004810B5034BFF221A60F0
:104880000120FFF743FC10BD0005014070B5040096
:104890000D00FFF7F1FF6B6923606A6880231B023C
:1048A00013438022A350AA68A023E250EA6804338D
:1048B000E2502A69DD33FF33E2502A68C93BFF3BEF
:1048C000E25070BDF0B5C64600B5002A19D1CA063F
:1048D000D20E90464905490F1F26E022D200944689
:1048E0000025082728339B001C5862469443B94092
:1048F0002143B1434246AA400A431A5080BCB846FD
:10490000F0BDCA02D20E90464901490FF82676033F
:10491000E022D204944610251827E3E770B504007E
:104920000D00496800230022FFF7CCFF69680023CF
:1049300001222000FFF7C6FFA96801230022200002
:10494000FFF7C0FFA968012301222000FFF7BAFF8B
:104950002A698023E250EA683833E2502A68530714
:104960005B0F9101890D09040B43F8214900635045
:10497000D300DB0F1B071001800F8006034390005C
:10498000C00F400703435200D20F920713436258EF
:104990001343802212061343635070BD10B580226A
:1049A00083580324A3431943815010BD10B58A4294
:1049B00000D90131C02283580324A34319438150F5
:1049C00010BDC022835803218B43835070470000E1
:1049D00030B50025002300E00133012B06D8094A39
:1049E0009C00A2588242F7D11D00F5E78D4200D904
:1049F0000131C0240359033101228A40134303517A
:104A000030BDC046D85D0010F0B5002309E0284A4B
:104A10009C00A55884242A59264E32402A5101333D
:104A2000DBB2012BF3D90B789B0702D100270022C0
:104A300012E080273F01FAE71D4B9400E6588425D9
:104A400074591D4B1C400B781B079B0F1B02234303
:104A50003B4373510132D2B2012AEDD94A68174B58
:104A600013438022920083508B68012213438122DA
:104A7000920083500A7803231340022B01D00023B5
:104A800012E081229200815880235B020B43835005
:104A9000F5E7074A99008858842144588022D204B7
:104AA000224342500133DBB2012BF2D9F0BDC046A4
:104AB000D85D0010FFFFFFFBFFFCFFFF00808000C0
:104AC00010B58423C258184C2240C250C458813BB0
:104AD0009C430A7813079B0F2343920701D00822B7
:104AE0001343842283504A68104B134380225200A0
:104AF00083508B68FF3A13430432FF3283500A78A5
:104B000003231340022B06D08422815880235B04A8
:104B10000B43835010BD82225200815880235B02D8
:104B20000B438350F0E7C046FFFFFFFE008080800C
:104B300070B5137B8826845901258D40AC438B408A
:104B4000234383510D23D356002B17DB012908D0B3
:104B5000002922D1B02403591F25AB4303510E0075
:104B600005E0B02403590E4D2B400351803EB02583
:104B700043590D241457B44023434351C8240359C7
:104B800055682B4303510834035995682B4303514F
:104B90001368803189000B5070BD0026E7E7C046DE
:104BA000FFE0FFFF10B580208000FFF7AFFA10BDD7
:104BB00010B50400FFF7F6FFA268034B5A60626865
:104BC0001A6122685A6110BD00000240F0B54F46DC
:104BD0004646D6460400C0B51F000B0310004E0029
:104BE0005B0ACD0F610F7A001943E3003C03FF0F0E
:104BF000BC46640A470F2743760D520DC000B946E4
:104C00008046B71A654500D19BE0002F00DC84E0A8
:104C1000002A00D1BEE0C84A964200D124E1802299
:104C20004C4612041443A146382F00DD67E11F2FC4
:104C300000DDD6E120224C46D21B9440A2464446D9
:104C4000FC4020005446044340469040421E9041A0
:104C50004A46FA400443891A1C1BA342924152421D
:104C60008B1A9A4653461B0200D4D4E053465A028C
:104C7000530A9A465346002B00D104E1504600F0F7
:104C80002DFE0300083B20222000D21A5146D040BE
:104C9000994002009C400A43B34200DA02E19B1BA8
:104CA000591C1F2900DDA7E02023100026005B1AF5
:104CB0009C409840CE40CA40631E9C41304392467F
:104CC00000260443630709D00F232340042B05D09B
:104CD000231DA342A4416442A2441C0053461B026C
:104CE00000D49BE0944B01369E4200D1B8E053467D
:104CF0009249E4080B4019005B07234372054C02FC
:104D0000240B520D1205ED0722432A43180011000F
:104D1000E0BCBA46B146A846F0BD002F48D0971B6C
:104D2000002E00D00EE10C001C4300D1B7E17C1E28
:104D3000012F00D126E2804DAF4200D1D5E12700FE
:104D400007E1002F00DCB2E0002A47D07A4A964201
:104D500000D189E080224C4612041443A146382F2A
:104D60006BDC1F2F00DC6EE13A004846203AD04051
:104D70008446202F07D040224846D21B9040020094
:104D80004046104380464046421E90416246040021
:104D9000144357E04A46024300D103E17A1E012F33
:104DA00000D193E1644CA74200D18AE117003BE7B0
:104DB000634C721C224200D0E0E00A001A43002E2D
:104DC00000D074E1002A00D1D0E14A46024300D06D
:104DD000E3E14A07DB081343C90829E04A460243D6
:104DE00000D17DE17A1E012F00D1E0E0524CA742B4
:104DF00000D166E11700B2E710001F3BD840202920
:104E000003D040235B1A9A401443631E9C41002345
:104E100000269A460443630700D055E75246E3084C
:104E20005207134352463700D108434A97421FD0D6
:104E300009037A050C0B520D64E742464C461443B5
:104E4000621E9441E4189C429241524292468A4426
:104E500053461B02DFD5384B01369E4200D0B3E0EB
:104E60003200002400234DE74A07DB081343C9083A
:104E70001A000A4300D100E2802424030C432403D7
:104E80002D4A240B3EE7200000F028FD03001833D4
:104E90001F2B00DCF7E62200083882400024B342D2
:104EA00000DBFCE6F61A254B1A4092460AE7002F73
:104EB0002BD0971B002E00D1B8E01F4CA24200D18E
:104EC0001CE1802424042143382F00DD1EE11F2F24
:104ED00000DD9EE120260C00F61B1800B340B44014
:104EE000F8405E1EB341F94004431C4389444444E6
:104EF00044459B415B424B449A461600A8E7424614
:104F00004C461443621E9441A6E60D4C721C22428C
:104F100000D0A8E00A001A43002E00D00AE1002ABF
:104F200000D15EE14A46024300D061E14A07DB0856
:104F30001343C9087CE7C046FF070000FFFF7FFF5F
:104F4000FE070000CF4CA24200D1CEE08024240412
:104F50002143382F5BDC1F2F00DDDCE020250C0017
:104F6000ED1B1E00AB40AC40FE405D1EAB41344328
:104F7000F9401C434B465B1A99464CE04A461C1AC2
:104F8000881AA34292415242924602005046121A97
:104F90009246120278D45346234300D06AE6002199
:104FA000002545E74A07DB081343C9083DE71C18FD
:104FB0009C429B4149448A465B429A44534601269F
:104FC0001B0200D427E702265246AF4B01211A40AC
:104FD0001300214062080A43DC075B089A46144329
:104FE00070E63A004C46203AD440A446202F07D021
:104FF00040224846D21B9040020040461043804663
:105000004046421E904162460400144324E6194380
:105010000C00631E9C4143461C1BA0459B41494616
:105020005B42CB1A9A46654616001BE60C001C43F1
:1050300000D1C7E07C1E012F00D1F9E0914EB742AC
:105040005CD0270040E720224C464046D21B9440CB
:10505000F840044340469040421E90414A46FA4080
:1050600004438918EEE6874CA24200D1F9E61818ED
:1050700098429B4149445B42CB18DC0740085B08DF
:105080009A4616000443C6E64246D41AA04580411B
:105090004B464042591A0B1A9A466546EAE54B467A
:1050A0004A46C0085B0765460343D108BDE6002AAF
:1050B00000D08EE04B46034317D180210025090321
:1050C000DAE64A07DB081343C908D1E61C1A4A4648
:1050D000A3429B41891A5B42CB1A9A460126C1E53D
:1050E0004A07DB081343C9089FE64346D8084B46E6
:1050F0004A465B0765460343D108B9E64346D808EC
:105100004B464A465B070343D108B1E619430C00FE
:10511000631E9C41EBE63C000D00203CE540202F47
:1051200003D04024E41BA1400B431C00631E9C41A0
:105130002C4370E7002AE1D04A460243C1D04A0717
:10514000DB0813438022C9081203114208D04846E5
:10515000C408144204D143462100DB08420713432C
:105160005A0FDB005207DB08134381E64B4603432B
:1051700000D114E74B464A46C0085B076546034327
:10518000D10855E6C41AA04580414B464042591A01
:105190000B1A9A466546012664E51C1A4A46A34244
:1051A00080418A1A4042121A9246120249D542465A
:1051B000D41AA04580414B464042591A0B1A9A46D0
:1051C00065467FE54B464A46C0085B070343D10866
:1051D0002BE64A46DB08024338D14A071343C90885
:1051E00046E64B464A46C0085B070343D1081FE624
:1051F0001C189C429B4149448A465B429A44534650
:105200001B0200D407E652461F4B01261A40924665
:1052100001E63C000E00203CE640202F03D0402455
:10522000E41BA1400B431C00631E9C4134435EE61B
:1052300043448342804149448A4640421C008244A0
:10524000BCE65346234300D1A9E6E4E54A071343ED
:105250008022C9081203114209D04846C4081442EA
:1052600005D1434665462100DB08420713435A0F28
:10527000DB00DB0852071343FAE50023014A1C0058
:1052800040E5C046FF070000FFFF7FFFF0B5454641
:10529000DE4657464E46E0B51F000B031B0B9B46F0
:1052A0004D00CB0F04009146984687B06D0D00D19C
:1052B000CDE1CE4B9D4200D1E9E15A46430FD200E9
:1052C0001343802212041A43C3009A46C84B9346E4
:1052D0009C4600230026654400933C037B0048461F
:1052E000240B5B0DFF0F002B00D189E1BF4A9342D5
:1052F00019D0420FE4002243802424041443BC4A02
:1053000000219446424663445B190193019B7A4015
:105310000133C000D2B202930A2E1CDD3A000B2EDC
:105320005ED0474656E04946B04B2143EB18019307
:1053300000292AD18020022200012B008446164336
:10534000424663447A40D2B202930A2E00DD31E233
:10535000002000240221022E26DC013E012E52D81C
:1053600002294CD0012900D018E100230024002597
:105370001B052343D20713432800190007B0F0BCD4
:10538000BB46B246A946A046F0BD802103220901D2
:105390002B008C461643424663447A40D2B20293B5
:1053A0000A2E00DD28E203210125B540AC46A626E1
:1053B0006346F600354033420BD19026B6003342A7
:1053C00018D1B93EFF3E1E421DD0A3468246009131
:1053D00000E0170000993A00022910D05C465046C0
:1053E0000329BFD180231B031C43240305007F4BEB
:1053F000240BBDE7802400227C4B2403B8E7002463
:1054000000257A4BB4E753461E04360C1F0C3300BC
:10541000010C0004000C4343984603007B4399466B
:1054200033004B439C4643460D001B0C9A467D437C
:10543000CC44D4440095E14504D980235B029946CD
:105440004D44009563461B0C1D0063461B049C469F
:1054500043461B041B0C9846634643440393230CAA
:10546000984633002404240C63439C4623007B436A
:10547000994643465E435F434E446346B2461E0C24
:105480005644B14503D980235B0299464F44330CFF
:1054900099463B004B4405936346AC461F043F0CC2
:1054A0003604F619B444634604935B461B0C9C46D1
:1054B0005B461F043F0C3B0043439946634643430E
:1054C0009A464B4660461B0C9B46484379435144E1
:1054D00059448A4503D980235B029A4650440B0CF9
:1054E0009A464B461B041B0C99463B006343090438
:1054F00045464944994663465C436B439C464B464C
:105500001B0C98466F433F1947445044BC4203D993
:1055100080235B029846C444049B009D9846454402
:10552000B542B641734298464B461E04059B3C0467
:105530009946360CA4194C44A14683466E18C144C2
:105540008E428941CB445D4649426D189C42A4413C
:10555000C1459B41834580418D4289415B42644204
:105560001C434042039B4942014370023F0C1843D5
:10557000E419471EB84164186444F60D61023043D3
:10558000EC0D6E020C433043C90100D4F1E001215F
:10559000430801400B43E007184364081549029B88
:1055A0008C466344002B00DC97E0410709D00F21B3
:1055B0000140042905D0011D814280414042241848
:1055C0000800E10106D58021C9008C460A4B1C4029
:1055D000029B634409498B4200DD10E76107C5085F
:1055E00064025B050D43240B5B0DC1E6FF07000061
:1055F00001FCFFFFFF030000FFFFFFFEFE070000AE
:105600004B46234359D0002C00D1A3E0200000F0EA
:1056100065F9010003000B391D22521A4946180092
:10562000D1404A4608388240844010000C43744AF6
:10563000EB1A9446424663440193019B7A4001333E
:105640000021D2B202930A2E00DD67E683E65B46B4
:1056500003439A462AD05B46002B6DD0584600F093
:105660003DF9010003000B391D22521A21001800D8
:105670005D46D140083885400A0084402A4393465D
:10568000A2465F4D0026ED1A0023009325E65B46F7
:1056900003439A4605D100239B4602330826009314
:1056A0001BE6032382460C26009316E600239B4646
:1056B00001330426002500930FE64246013301958D
:1056C0001E43019B7A400133002400200121D2B205
:1056D00002930A2E00DD21E63DE60121C91A382990
:1056E00000DD42E61F2947DD1F2625007642F31A1A
:1056F000DD402B00202905D04249029D8C4665449F
:10570000AC402043411E8841184307231D0000245C
:10571000054003424AD00F2300240340042B42D00B
:10572000031D8342804140422418180023023AD5C9
:105730000123002400251BE600F0D0F8010003003F
:10574000153120331C298FDD083800228440924611
:10575000A34696E700F0C2F801000300153120339C
:105760001C2900DC58E702004C46083A002094400F
:105770005DE7019B029311E7234B26009C46030043
:10578000029DCB406544AE401E430300AB40581E13
:10579000834130001843CC404307C7D00F23034058
:1057A000042BBDD1C2E765076402240BC0080023A7
:1057B0000543DDE5002502230F2E0CD180245B4636
:1057C000240323420ED021420CD10C4324033A007F
:1057D0000E4B240BCCE50B2E00D0A2E58B46AA463F
:1057E0000093F7E580245B4624031C4324034246D0
:1057F0005546064B240BBBE54D4621000323DBE752
:105800000DFCFFFF3E0400001E040000FF07000027
:105810000A0030B5134C530009030500090B0020A2
:105820005B0DD20FA34204DD0F48834202DD0F4B14
:10583000D01830BD8020400301430D48C01A1F28F6
:1058400008DD0C48C31AD9400B005842002AF0D199
:105850001800EEE7084CC540A446634499400B008D
:105860002B43F2E7FE0300001D040000FFFFFF7F53
:105870003304000013040000EDFBFFFF70B50028A7
:1058800016D0C317C5185D40C40F280000F026F8D5
:10589000114B1B1A0A2816DC02002E001532964006
:1058A0000B22121AD5405B052D032D0B5B0D03E077
:1058B00000240023002500261B052B43E407234377
:1058C0003000190070BD0B3885405B052D030026A4
:1058D0002D0B5B0DF0E7C0461E0400001C210123C8
:1058E0001B04984201D3000C10391B0A984201D3C3
:1058F000000A08391B09984201D30009043902A2A1
:10590000105C40187047C046040302020101010107
:10591000000000000000000070B500260C4C0D4D8A
:10592000641BA410A64209D10026FEF753FB0A4CC3
:105930000A4D641BA410A64205D170BDB300EB58FC
:1059400098470136EEE7B300EB5898470136F2E787
:10595000640600206406002064060020640600201F
:10596000004B0000000808011000000006000000C5
:10597000F000000004010000000100000000000031
:10598000100000000000007000100000F80000008F
:105990000D010000000100000000000005000000F3
:1059A0000000000002000000F00000000D000000F8
:1059B00078780000000000000701000000000000EF
:1059C00000000000050000000000000002000000D0
:1059D000F00000000D0000007878000000000000DA
:1059E00007010000000000000000000005000000AA
:1059F0000000000002000000F00000000D000000A8
:105A0000787800000000000007010000000000009E
:105A10000000000001000040000000000000000045
:105A2000F00000000701000000000000000000007E
:105A300000000000F0100000000000000000000066
:105A400000000000F4010000000000000001000060
:105A50000000000000000000000000000000000046
:105A60000000000000000000000000000000000036
:105A70000000000000000000100000000000000016
:105A8000B80000000000010010000000000000004D
:105A900008000000000000000800000000000000F6
:105AA00008000000000000001000000000000000DE
:105AB00010000000000000000800000000000000CE
:105AC0008000000000000100A800000000000100AC
:105AD000A800000000000100B80000000000010064
:105AE000B800000000000100A80000000000010054
:105AF000A80000000000010090000000000001006C
:105B00000000000000000000000000000000000095
:105B10008000000000000100000100000000010002
:105B2000000000003E2100104821001060210010FC
:105B300080210010B0210010DE210010FC21001097
:105B40001822001044220010B8350010483500100B
:105B50004E350010543500105A35001060350010D5
:105B6000663500106C350010723500100303060214
:105B7000050104011E06280632063B0644064C06B3
:105B800054065B06620668066E06730678067D0696
:105B90008106840687068A068C068D068E068E068A
:105BA0008E068E068D068B0689068606830680067F
:105BB0007B06770672066C06660660065906510675
:105BC0004906410638062F0625061406F405D505B4
:105BD000B50594057405530531050F05ED04CB0497
:105BE000A9048604630440041D04FA03D603B30326
:105BF0008F036C03480324030103DD02BA029602FB
:105C0000730250022D020A02E701C501A3018101BE
:105C10005F013D011C01FC00DB00BB009C007C001F
:105C20006B00610058004F0047003F003700300014
:105C30002A0024001E001900150010000D000A00A3
:105C4000070005000300020002000200020003003A
:105C50000400060009000C000F00130018001D00CE
:105C6000220028002E0035003C0044004C00550066
:105C70005E006800720068005E0055004C00440041
:105C80003C0035002E00280022001D0018001300E3
:105C90000F000C00090006000400030002000200CF
:105CA000020002000300050007000A000D001000BA
:105CB000150019001E0024002A00300037003F00A4
:105CC00047004F00580061006B007C009C00BB0047
:105CD000DB00FC001C013D015F018101A301C50146
:105CE000E7010A022D02500273029602BA02DD0297
:105CF0000103240348036C038F03B303D603FA03A1
:105D00001D04400463048604A904CB04ED040F05BC
:105D10003105530574059405B505D505F40514063C
:105D200025062F0638064106490651065906600623
:105D300066066C06720677067B0680068306860674
:105D400089068B068D068E068E068E068E068D06BD
:105D50008C068A068706840681067D067806730609
:105D60006E06680662065B0654064C0644063B0651
:105D700032062806010300023E4300103E43001095
:105D800054430010544300106C4300106C43001047
:105D90006C4300106C4300104C430010444300104F
:105DA0005A4300105A4300109644001096440010C5
:105DB000B2440010B2440010AC440010AC440010D7
:105DC000CA440010CA440010A44400109C440010AF
:105DD000B8440010B8440010000403480008034809
:105DE0002C48874600000000000000000000000072
:105DF00000000000000000000000000000000000A3
:105E00002548874600000000000000002348874620
:105E100023488746234887462348874623488746A2
:105E20002348874623488746234887462348874692
:105E300023488746000000002248874622488746BC
:105E40002248874622488746224887462248874676
:105E50002248874622488746224887462248874666
:105E60002248874622488746224887462248874656
:105E70002248874622488746224887462248874646
:105E800022488746224887460000000000000000A4
:105E900020488746A3100010A3100010A310001084
:105EA000A3100010A3100010A3100010A3100010E6
:105EB000A3100010A3100010A3100010A3100010D6
:105EC000A3100010A3100010A3100010A3100010C6
:105ED000A3100010A3100010A3100010A3100010B6
:105EE000A3100010993E0010A3100010A310001082
:105EF000A3100010A3100010A3100010A310001096
:105F0000A310001069060020B1090020A3100010A2
:085F1000A3100010A310001003
:105F180000000700000000000000000000FF000073
:105F280000000700000000000000000000FF000063
:105F380040020600000000000100000000FF000011
:105F48000000000000000000000000000000000049
:105F58000000000008000000000000000000000031
:105F68000000000000030000000001000000000025
:105F78000000000000010000000000000100010016
:105F88000000000000000000000000000004000005
:105F980000000000000000000003000000040100F1
:105FA80000000000000000000004000000000000E5
:105FB80001000100000000000000000000000000D7
:105FC800A0000000210000000D000000004F0400A8
:105FD8000400000000000000000F04003000000072
:105FE800BB00AA00AA00AA006E00AA00A000AE107A
:105FF80002080000400000008FC10A02020149495E
:10600800C2C29601010143A5A501B02F282819078E
:106018004803580148034803AE10FFFF0549C20E64
:0C60280000186B42C3EB9800040000005D
:10603400F0B5D6464F464646C0B5A748056FADB243
:10604400012100F079FC86B2A44A80235B00D25877
:106054005211F93B1340A2490B70A24A1370AD1BB5
:10606400ABB29A46A04AC1239B00D358DB009F4A97
:1060740013409F4A13609F480268D21802609E48EA
:106084000268013202609D48026894469C4A644654
:10609400A400A046A458A1469A4F3C684D46641BF0
:1060A4003C604546AB50E4183C60634601333F22F4
:1060B400134003602034A411934B1C600F78934B5E
:1060C4001B789F4200D1C9E0914AD35C9F4200D122
:1060D4008EE0904A002313708F4A13708F4A136026
:1060E4008F4A138801331380884B1F708D4BDA5D00
:1060F4008D4B1A706409E4B28C4B1C70854B1B7871
:10610400002B0ED08A4B1B7853448A4A1278D2183B
:10611400824B1B68534380221202944663441B0C37
:10612400DBB2814A12789B18DBB2834A1278D31807
:10613400DBB2824A12789B18DBB21A00553AD2B20B
:106144007F495200525A7F490A80D22189008A42EB
:1061540000D89DE07C498C4662447C4909784A43D6
:106164001212D22189008C46624492B278490A8084
:10617400734A59008A5A73490A80D22189008A4293
:1061840000D891E070498C466244704909784A43CA
:106194001212D22189008C46624492B26D490A805F
:1061A4005533DBB2664A5B009B5A664A1380D2229F
:1061B4009200934200D883E0634A94466344634A5E
:1061C400127853431B12D2229200944663449BB22A
:1061D400614A1380614AC6239B00D3589B109B05D8
:1061E4009B0D5F4A1380E0BCBA46B146A846F0BD99
:1061F400012F18D0032F00D076E75A4B01221A70D2
:10620400444B1B78802B00D06EE73A4E3A4B9846AD
:106214001968306800F088FB534B18600023336022
:106224004246136060E73C4B1B78002B10D04F4B69
:106234001B88F31A9BB24E4A1380118889B28020BE
:10624400400400F071FB354B1860324B80221A7009
:10625400314B01221A70454B1E8045E7454B9A4548
:1062640000D847E72B4A00231370334A13702A4A95
:1062740013702A4A13603E4A0121494211801C4A84
:106284001168394A11601B4A13601B4A136031E7D5
:10629400D22189008A1A2D48007842431212891AA1
:1062A40089B22B4A118063E7D22189008A1A2748D0
:1062B400007842431212891A89B2264A11806FE784
:1062C400D2229200D31A214909784B431B12D21AC5
:1062D40092B2214B1A807DE700020448000001506D
:1062E400E01200203913002000040348F8FF0700DF
:1062F40004130020081300200C130020D8120020DF
:10630400D8110020DC1200201013002047060020C2
:106314006C5B00103A13002038130020181300207F
:10632400E2120020580600203B1300202013002016
:10633400341300205706002037130020E4120020F5
:10634400745B0010FA120020B8FCFFFF3613002023
:10635400480600204C0600204E0600200008034892
:10636400F21200203313002014130020E612002040
:10637400520600208D20000010B5D44B1B889BB220
:10638400D34AD363D34B1B889BB2D34AD363D34B37
:106394001B889BB2D24AD363A023DB051222FF32AF
:1063A4001A61D04B1B78002B2CD0CE4B1B78DBB260
:1063B4000A2B22D9CC4B18780002CA4B1978C9B2DF
:1063C40000F0C2FA80B2C94B1880C94B1B78002B6D
:1063D4001DD0C54B1B78C74A1278534380331B1218
:1063E400DBB2C34A1370192B02D9130019221A7095
:1063F400BF4B1A78C04B1A7009E0BB4B1B78BB4AE1
:106404001380E2E7B94B00221A80BB4B1A70B84BD9
:1064140000221A70B94B5A6A920A012313405A4255
:106424005341DBB2B64A1370B64AC1239B00D3581A
:106434009BB29B08DBB2B44A12789A4206D2A94AAC
:106444001178890813785B1ADBB21370AF4B1A7892
:10645400D2B2A44B1B78DBB29A421CD3AC4B1A7851
:10646400D2B2A14B1B78DBB29A4214D39F4B1A8849
:1064740092B2A84B1B889BB29A420CD8A64B1A889E
:1064840092B2A64B1B889BB29A4204D39C4B1B78B6
:10649400002B00D1DCE0A24B00221A70A14A137831
:1064A4000133DBB21370A04A1278D2B293420CD9F2
:1064B4009C4B00221A709D4B1B78002B00D1BCE032
:1064C4009A4A1378013BDBB213708C4B5A6A120957
:1064D40001231340964A128892B2002A00D17EE129
:1064E400934A1288D20893490A80934A1278002A60
:1064F40006D0924908888F49098889B288420DD903
:106504008F490978994209D08D490B70002B05D029
:10651400002A00D067E1884B01321A70864B1B7841
:10652400002B08D0854B1B88864A934200D970E122
:10653400824A01331380734AC7239B00D3589B10AC
:106544009B059B0D804A13801188804A13885B0049
:10655400C91813885B189B109BB2128892B29A4296
:1065640000D15EE1794A138064494B6A5B090122D8
:106574001340496A490B0A4052001343744A127883
:106584009A4212D07349C95C8A4200D15AE1724AD4
:1065940000211180714A05311170714A7B311170EB
:1065A400704A002111806A4A13706E4A13880133BD
:1065B4009BB213806C4A1288934200D870E1664BF8
:1065C40000221A80674B1A80644B05321A70644BA0
:1065D4007B321A70654B00221A70654B1B78002BB6
:1065E40009D0634A00231370624A1380624A1380FD
:1065F4005E4B00221A70584B1B889BB2002B00D1B3
:1066040058E15C4B1A8892B2504B1B889BB29A4259
:1066140004D24E4B1B889BB2564A1380534B1B78B3
:10662400132B00D84DE1514B00211970514A1388A6
:106634009BB251480380118043E12A4B1B78002B05
:1066440000D142E7274A1378013BDBB213703CE7E1
:106654002E4B1A78D2B2234B1B78DBB29A4200D865
:106664008EE02B4B1A78D2B21F4B1B78DBB29A42C6
:1066740000D885E02B4B00221A70294A1378013385
:10668400DBB213703D4A1278D2B2934200D81CE7B1
:10669400234B00221A70134B1B78DBB21D2B03D83B
:1066A400104B1E321A7010E70E4B1B78DBB2FD2B19
:1066B40000D90AE70B4B1B78DBB2FD2B00D904E7AA
:1066C400084A13780133DBB21370FEE64806002053
:1066D400000100504C060020000200504E0600202D
:1066E400000300503613002020130020E81200207D
:1066F400331300203213002037130020000004401D
:106704002C13002000040348310600202E1300201F
:106714002D13002018060020F21200204A06002043
:10672400301300202F1300205506002034130020BE
:10673400FC120020001300203F130020FE12002052
:106744003E130020F99B0000EA120020EE12002004
:1067540060060020745D0010F6120020540600202C
:106764003D130020F8120020500600203C130020A6
:1067740021130020EC120020F01200205606002005
:10678400504B1B78002B04D04F4B1B78DBB2FE2BF5
:1067940005D04E4B00221A704D4B1A7095E64C4BA7
:1067A40000221A70494A13780133DBB21370494A44
:1067B4001278D2B2934200D887E6444B00221A7072
:1067C400454B1A78D2B2454B1B78DBB29A4200D3C0
:1067D4007BE6414A13780133DBB2137075E6404A15
:1067E4004049118081E6404B1B88A32B07D83F4BBF
:1067F40000221A803C4B1A803D4B1A708EE63B4AAD
:106804001380394B00221A803A4A1368013313600B
:1068140084E6364B00221A80334B1A80344B1A70AC
:1068240089E6354A128892B29A4202D901339BB260
:1068340098E6314A128892B29A4200D392E6013B1A
:106844009BB28FE62D4A12882D490A802D4909787A
:1068540099420BD005291BD02B4A128892B2002AE8
:1068640000D09DE6284A2949118099E6284901204B
:10687400087028490C882448048000200880204996
:10688400AC32FF320A8024490A7801320A7087E662
:106894001C4A13701F4A002111801F4A11707FE6A1
:1068A400184B1B78052B00D197E61A4A138801333D
:1068B400138092E6184A00231370184A1380184A6A
:1068C400138010BD31130020361300203013002034
:1068D4002F13002056060020341300203513002007
:1068E400001300207F130000FE120020FC12002081
:1068F4003F1300201C130020EA120020260600206B
:106904005006002054060020F6120020C21D00008C
:106914003D130020F41200203C130020F01200204C
:10692400EC1200200000000001B40248844601BCBF
:10693400604700BFF944001001B40248844601BC1A
:10694400604700BF2543001001B40248844601BCDF
:08695400604700BF1945001067
:0400000510001019BE
:00000001FF
