:020000041000EA
:10100000480500201910001000000000A310001077
:1010100000040100000100001249134A134B00F0C4
:101020001AF8134880471349134A144B00F013F879
:101030001349144A144B00F00EF81449144A0020C6
:10104000521A02DD043A8850FCDC124880471248EC
:101050008047124880479B1A03DD043BC858D05094
:10106000FBDC7047A47600100C0000204401002037
:10107000054B0010DC77001048050020800600209A
:101080001479001080060020501200205012002019
:1010900048170020A1100010A56F00100D3D001092
:1010A0007047FEE710B582B06B46354ADA80354BA3
:1010B000354A1A60354B0121C022520099508020D8
:1010C0001A58334C22401A508022120231480260D2
:1010D00031480260812292009950304A8423802155
:1010E000C904D1501DE029498122920088588023EB
:1010F0009B0003438B50294AFC235B00D358002BF1
:10110000F9D0C0239B00D358009380231B02214AAF
:101110001360214A13606B469A1DDB88013B9BB22A
:1011200013806B4606331B889BB2002BDBD1009BE0
:101130000023009305E080231B02164A1360164A21
:101140001360174B1B6C1B0FF5D1104B80215858A7
:10115000C022920202435A5000228531FF315A5078
:1011600084395A500D4B9532FF328039FF399950EE
:1011700083315A580B4802405A5002B010BDC04645
:1011800050460000BC4003480004103F00000348E4
:10119000FFFFFC7FE0400348E440034800040348AD
:1011A00000400348FFFFFFFB00B583B00023124A55
:1011B0001360124A13600321114804F087F91149A2
:1011C00080228858104B03438B501423019308E06E
:1011D000019B013B019380231B02074A1360074ACE
:1011E0001360019B002BF3D1FFF75CFF0021044843
:1011F00004F06CF903B000BDE0400348E44003484C
:1012000000040348000003480000018070B584B06A
:101210005249534804F0D2F85249534D280004F083
:1012200015F95249524C200004F010F9032128000E
:1012300004F04CF90321200004F048F9FFF7B4FF53
:101240004C49200004F078F982225200A1588023F2
:10125000DB000B43A350464A84235B00D3589B0614
:10126000F9D5140082256D0053590326B343535119
:1012700053590122134363513F4B1A6888235B0083
:10128000E2503E4A1268E2503D4A1268E2503D4A3E
:101290001268E2503C4A0021200004F085F93B4AE4
:1012A0000121200004F080F9394A0721200004F0D0
:1012B0007BF9384A0621200004F076F901AC0C22B3
:1012C0000021200005F066FE2378B343012213437A
:1012D0002370DBB20C2213432370234E2100300015
:1012E00004F02AF972598023DB00134373511E4A1C
:1012F00084235B00D3589B06F9D5140088235B0038
:101300002022E2500132E2500632E250224A00210D
:10131000200004F049F9214A0121200004F044F999
:101320001F4A0721200004F03FF90022012120007C
:1013300004F0D4F80021200004F0E2F80C4D28005D
:1013400004F0D7F88423E158802252041143E1507D
:10135000E9580A43EA5004B070BDC0464805002071
:10136000000003489005002000040348E405002025
:101370000008034808060020F8050020FC050020AE
:101380000006002004060020A4050020B40500206B
:10139000C4050020D4050020600500207005002051
:1013A0008005002010B500F007F800F029FA10BD04
:1013B00010B5FFF7F7FF10BDF0B5DE4657464E46B5
:1013C0004546E0B585B0DB4D0021280003F0BAFCAE
:1013D00080235B009A46EB60D749D84E300003F07B
:1013E000CBFC0523F363053373638021C904280014
:1013F00003F0BAFC072399462B61D14A0121300042
:1014000003F0FBFCCF4A0221300003F0F6FCCE4A89
:101410000321300003F0F1FC01220121300003F030
:10142000D1FC01220221300003F01AFDA427F35958
:1014300004221343F35101239B46EB6000243467DD
:10144000F360C249C24E300003F0ADFCC14B736380
:1014500080210905280003F087FC70232B61BE4A18
:101460000121300003F0C9FCBC4A0221300003F026
:10147000C4FCBB4A0321300003F0BFFC0121300053
:1014800003F0B4FC02218846E96034675946F160F4
:10149000B449B54E300003F06FFCA023F363B34BA7
:1014A000736380218905280003F05EFCE021C901F7
:1014B0002961AF4A0121300003F09FFCAD4A0221AF
:1014C000300003F09AFCAC4A0321300003F095FC95
:1014D0000823EB6034675846F060A025ED05002135
:1014E000280003F0E9FC5046E860A449A44E30000F
:1014F00003F0F4FCD22080008346F0637464D220B1
:10150000C00082460100300003F053FD8021C90471
:10151000280003F0FEFC484628619A4A0121300069
:1015200003F014FD984A0221300003F00FFD974AA2
:101530000321300003F00AFD01220121300003F0F5
:10154000F1FC9349300003F05BFD34679149924E02
:10155000300003F0C3FC5846F06374645146300019
:1015600003F027FD80210905280003F0D2FC702339
:101570002B618A4A0121300003F0E8FC884A0221ED
:10158000300003F0E3FC874A0321300003F0DEFC67
:1015900001220121300003F0C5FC8349300003F033
:1015A0002FFD34678149824E300003F097FC5B4683
:1015B000F36374645146300003F0FBFC802149055D
:1015C000280003F0A6FCE023DB002B61794A01210F
:1015D000300003F0BBFC784A0221300003F0B6FC77
:1015E000764A0321300003F0B1FC012201213000D2
:1015F00003F098FC7249300003F002FD3467714932
:10160000714E300003F06AFC704BF363704B7364EF
:101610005146300003F0CDFC80218905280003F0FD
:1016200078FCE021C90129616A4A0121300003F0F8
:101630008DFC694A0221300003F088FC674A0321CF
:10164000300003F083FC01220121300003F06AFC2A
:1016500000220121300003F0AFFC03220221300000
:1016600003F0AAFC01220521300003F0A5FCF35988
:1016700041460B43F351F35904221343F351F359F9
:101680001C321343F3513467554D280003F0ECFC32
:101690002B680326B3432B605249280003F0F0FC6B
:1016A0005149280003F0F6FC00220221280003F033
:1016B000FCFC6B6F042213436B674C494C4D0022BA
:1016C000280003F0FDFCEB6950229343EB61EB69CA
:1016D0004A4693433343EB61EA6B464B1A408023FF
:1016E0001B011343EB63444B2B610C3602960194B0
:1016F00000943A2300220021280003F0E1FD1F237B
:1017000005220021280003F00BFE1F2305222021C3
:10171000280003F0EFFD2B6CB343424613432B64C8
:10172000364803F081FF05B0F0BCBB46B246A9467F
:10173000A046F0BD00000448F86F00100001044806
:101740000070001004700010087000101470001079
:1017500000020448FFFF00001C7000102070001001
:1017600024700010BC70001000040448FF04000046
:10177000C4700010C8700010CC70001028700010E9
:101780000001005044700010487000104C700010B0
:101790003870001050700010000200506C70001083
:1017A000707000107470001060700010787000107D
:1017B0000003005094700010987000109C7000108E
:1017C00088700010A0700010000400508F06000008
:1017D00014050000B0700010B4700010B870001054
:1017E00000000150107000100C700010EC6F001021
:1017F00000020048FFE0FFFF43820000D0700010AD
:1018000010B57F4A7F4C0021200003F083F90022AD
:101810000021200003F0FBFB7B4A0A21200003F09B
:1018200079F900220A21200003F0F1FB774A0D210B
:10183000200003F06FF900220D21200003F0E7FBE8
:10184000734A0121200003F065F9002201212000E4
:1018500003F0DDFB6F4A0221200003F05BF9002258
:101860000221200003F0D3FB6B4A0321200003F088
:1018700051F900220321200003F0C9FB674A04212B
:10188000200003F047F900220421200003F0BFFBF1
:10189000634A0521200003F03DF9002205212000C4
:1018A00003F0B5FB5F4A0621200003F033F9002264
:1018B0000621200003F0ABFB5B4A0721200003F068
:1018C00029F900220721200003F0A1FB574A082133
:1018D000200003F01FF900220821200003F097FBED
:1018E000534A0921200003F015F9002209212000A4
:1018F00003F08DFB4F4A504C0021200003F00AF901
:1019000000220021200003F082FB4C4A012120002C
:1019100003F000F900220121200003F078FB484A7F
:101920000221200003F0F6F800220221200003F03B
:101930006EFB444A0321200003F0ECF8002203214F
:10194000200003F064FB404A0521200003F0E2F888
:1019500000220521200003F05AFB3C4A3C4C0A219E
:10196000200003F0D7F800220A21200003F04FFBEB
:10197000384A0B21200003F0CDF800220B21200073
:1019800003F045FB344A0221200003F0C3F8002293
:101990000221200003F03BFB304A0421200003F029
:1019A000B9F800220421200003F031FB2C4A052164
:1019B000200003F0AFF800220521200003F027FBF0
:1019C000284A0621200003F0A5F800220621200065
:1019D00003F01DFB244A0821200003F09BF800229D
:1019E0000821200003F013FB204A0921200003F006
:1019F00091F800220921200003F009FB10BDC04628
:101A00005471001000000440147100103C7100106B
:101A10005C710010647100106C7100104471001052
:101A2000347100100C7100100471001074710010FA
:101A30007C7100102C710010000104402471001012
:101A40001C710010847100104C710010F4700010B3
:101A500000020440FC70001094710010DC70001053
:101A60008C7100109C710010E4700010EC7000107C
:101A700030B585B001A8044B020032CB32C203F06E
:101A800037F905B030BDC046A471001010B5FFF79E
:101A90008FFC002010BD70B505000E001C0004ABCB
:101AA00018888D421FD395421ED2521A91B2A0427D
:101AB0000CD2AE1BB6B2201A80B270434B08C018CD
:101AC00003F0B2FA80B2201A80B20DE0AD1BADB2C5
:101AD000001B80B268434B08C01803F0A5FA80B21F
:101AE000001980B200E0200070BD70B51D0004AB8D
:101AF0001B7888421DD990421DD2AB420CD2441AA9
:101B0000E4B2E81AC0B26043511AC9B203F09CFAB9
:101B1000C0B2281AC0B20DE0441AE4B2581BC0B2D9
:101B20006043511AC9B203F08FFAC0B24019C0B273
:101B300000E0280070BD1800FCE7030008008B429D
:101B400000D21800704710B504000F2A13D81023D4
:101B50009B1A43434A439B1808331B0998B281429E
:101B60000AD1844202D9013080B205E0844203D216
:101B7000013880B200E0002010BD00000B88434017
:101B80000B80082202E05B080B80013A002A07D094
:101B90000B88D807F7D55B08024843400B80F4E771
:101BA0007047C04601A0FFFF002803D0044B20224D
:101BB0005A607047024B802292035A60F9E7C04690
:101BC0000001044070B5164B1B78002B14D0012B7C
:101BD00016D0144B1B78002B0DD0134D2C88134BB3
:101BE000134A12785200D05A6043642103F01CFA61
:101BF00080B224182C8070BD0A4B01221A70E8E7CD
:101C00000C4B1B88002B03D1064B01221A70E0E716
:101C1000074B1B782D2BDCD9024B00221A70D8E71A
:101C20004B1400204E14002094120020B412002007
:101C3000E5130020AE13002010B5194B1B78002BC4
:101C40000BD1184B1B88002B07D1174B01221A70A0
:101C5000164B174A12781A701DE0134B1B78002B95
:101C600019D0124B1B78002B16D0104A013B137071
:101C70000E4B1B78642058430D4B197803F0E4F9A0
:101C800083B26420C01A80B20A4C2388584364216E
:101C900003F0DAF9208010BD034B00221A70E7E749
:101CA000E5130020AC120020471400204614002049
:101CB0003D060020941200200A4B1A780A4B1B782C
:101CC000934201D8013BDAB2084B18211970084B36
:101CD0000F391970074B084909781970074B1A70AA
:101CE0007047C046E91300203C060020340600205F
:101CF00032060020BE1300202C060020D513002041
:101D000010B50E4B198889B2002912D00C4B1B88D4
:101D1000AB208000584303F087F90A4B18800A4B28
:101D20001B78002B04D0074A99005B185B001380D6
:101D300010BD044B00221A80F1E7C046EA160020CD
:101D400024060020AE1300208014002009490A88D0
:101D50009308D21A92B20A80074B1B889B189BB239
:101D60000B809B08054A1380054A57214B4313807B
:101D70007047C0468C120020D41600208E1200201E
:101D8000A412002010B55B4B1A8892B25A4B1B88E4
:101D90009BB29A423FD2594B01221A70584B1A7883
:101DA000531EDBB2012B3AD9052A38D0042A36D08B
:101DB000544B00211970534B1978002916D0524BFF
:101DC0001B880A3B9BB291204000834209D84F4BAD
:101DD0001888AF239B00984203D84D4B1B78002BEB
:101DE00004D04C4803780224234303704A4B1B88D9
:101DF000642B1CD9494B1B78002B18D1002916D015
:101E0000474B1B78013BDBB2812B10D945490B783E
:101E100001330B700EE0394B00221A70BEE7424BC3
:101E20001B78002BC4D1374B01211970C3E73D4B00
:101E3000002119703B4B1B78FA2B04D935490B78DC
:101E4000042003430B70394B1B78002B20D1384BF7
:101E50001B885A2B08D9072A06D0062A04D0354AEF
:101E600013880133138002E0324B00221A80324B78
:101E70001B88002B02D02F4B00221A802D4B1B8871
:101E80007D2B05D9234A117880235B420B431370C5
:101E90002A4B1B780F2B10D9254B1B88092B0CD8EC
:101EA000274A13780133DBB213700A2B08D9194A79
:101EB000137808210B43137002E0214B00221A70A3
:101EC000204B1B78002B03D01F4B1B78022B00D01C
:101ED00010BD1E4B1B78132BFAD81C4A013313700C
:101EE0001B4B1B88D32BF3D90A4A137810210B43C1
:101EF0001370EDE7D41600207A0600207914002034
:101F0000E8130020EA130020160600209212002099
:101F1000C213002039060020961200204A14002027
:101F2000E5130020CE130020C4130020521400201B
:101F3000AC120020A6120020AE130020CB1300200C
:101F4000E013002055140020E41300205414002056
:101F50009E12002010B582B0124B1C88A4B2C82279
:101F6000114B188811230093CF3352002821FFF71B
:101F700092FD0E4B1880002C0BD021000C4803F072
:101F800053F8C0B20B4B1870782805D978221A7014
:101F900002E0084B00221A70074B064A12781A70AA
:101FA00002B010BDD6160020AE130020220600207D
:101FB00035DF0000E5130020E613002030B583B0C4
:101FC000134B1B78002B21D09A1ED2B291005118CE
:101FD00049000233DAB29300D21852000D4B0020B0
:101FE00018700D4B1888904209D90C4B1B78002BA8
:101FF00002D0084B01241C70094B00241C70074CB4
:10200000237800250095FFF746FD207003B030BD12
:102010004406002048140020AE130020BE13002008
:10202000D513002030B583B0134B1888134C21888A
:102030000822FFF788FD0300208011485843C00A9A
:1020400080B2104B1880104B1978104B1A789142BF
:1020500004D30F4B00221A7003B030BD0C4C237810
:102060009500521952008D0049194900002500952C
:10207000FFF711FD2070EFE79E1200209012002064
:1020800010270000AE120020E3130020E21300200E
:10209000BE13002010B56D4A13780133DBB2137004
:1020A0006B490A780132D2B20A706A49097800296C
:1020B0001AD0032B18D9654B00211970654B197084
:1020C000654B1B78002B19D0012A17D9604B0022D1
:1020D0001A70614B1A70614B1A78082A00D9B0E067
:1020E00093005F4AD3589F460029E9D1022BE7D9D4
:1020F000564B1970574B01311970E1E7002BEAD1AB
:10210000012AE8D9524B00221A70534B01321A703F
:10211000E1E7544B1878FFF747FD10BD514B187895
:10212000002804D04B4B1878FFF73EFDF5E7FFF78A
:102130003BFDF2E74B4B1878002803D04A4B1B7845
:10214000002B02D1FFF730FDE7E7434B1878FFF78C
:102150002BFDE2E7434B1878002803D0424B1B7855
:10216000002B06D100280AD03A4B1878FFF71CFD47
:10217000D3E73D4B1878C0B2FFF716FDCDE7FFF768
:1021800013FDCAE7374B1878002803D0364B1B786D
:10219000002B06D1002809D02E4B1878FFF704FD3C
:1021A000BBE72D4B1878FFF7FFFCB6E7FFF7FCFC09
:1021B000B3E72D4B1B78002B05D02B4B1878C0B202
:1021C000FFF7F2FCA9E7274B1878FFF7EDFCA4E72F
:1021D000254B1B78002B04D01F4B1878FFF7E4FC2D
:1021E0009BE7204B1878FFF7DFFC96E71E4B1B7828
:1021F000002B08D11B4B187800280AD0154B1878F3
:10220000FFF7D2FC89E7184B1878C0B2FFF7CCFC77
:1022100083E7FFF7C9FC80E7134B1B78002B08D13D
:10222000104B1878002809D00A4B1878FFF7BCFC2F
:1022300073E7094B1878FFF7B7FC6EE7FFF7B4FCBC
:102240006BE7084B1878FFF7AFFC66E7D413002064
:10225000CD130020D3130020CC130020DB1300206B
:10226000B0710010DC1300202817002010B5754B4A
:102270001B78002B1DD0744B1B781433734A1370DA
:10228000724B1B78822B02D9704B82221A70704BD2
:10229000F4221A706F4BAB3A1A706F4B19782820E2
:1022A000FFF74BFC6D4B18706D4B684A12781A7033
:1022B00010BD654B18786B4B18706B4B1B78002B5F
:1022C0000ED16A4A1288002A0AD1604B32321A7043
:1022D000674B1A70674B00221A80674B1A80CFE752
:1022E000002B6FD0614B1B88644A1288934219D22D
:1022F000634B04221A70634A1378591C1170042B23
:10230000BED9524B1A785A4B1B789A4206D24F4B81
:1023100001321A705B4B00221A70B1E7544A013344
:102320001370F7E7544909888B4217D29B1A9B0018
:10233000DBB2534A137053490A78501C0870934219
:102340009ED2424B1B784A4A1278934202D23F4AAD
:10235000013313704B4B00221A7091E74A4A1288DE
:10236000934216D2D31A9B00DBB2454A13704549FB
:102370000A78501C0870934200D381E7334B1B78D6
:10238000282B02D9314A013B13703E4B00221A70B0
:1023900076E73B4B04221A703A4A1378591C1170A5
:1023A000042B00D86CE7294B1B78282B06D9274A29
:1023B000013B13702E4A1378013B1370314B0022FE
:1023C0001A705DE72E4B0A221A702E4A1378591C98
:1023D00011700A2B00D853E72C4B1988002925D0FF
:1023E0002A2903D9194A1378013B1370214A13880B
:1023F0005C1C1480092B15D91D4A13780A331370FD
:102400001A4B1B88584302F01FFE80B21A4B1880EB
:102410000200143A194B1A8014301B4B1880124BCF
:1024200001221A70174B00221A7029E7104B1B78F3
:10243000772BF7D805490A7801320A700C4A013324
:102440001370EFE7C81300207D140020430600201E
:1024500034060020320600202C060020BE13002087
:10246000D51300207F1400207E140020AC12002021
:1024700042060020AA130020A8130020A613002063
:102480007B1400207C140020A4130020AE13002035
:10249000F0B583B00500BA4B43221A709870032838
:1024A00000D1DBE143D8012800D1FBE202283CD176
:1024B000B44B00221A70B448C278B44B1A70027937
:1024C000B34B1A70437901221C001440B1490C70BF
:1024D0005C08144099081140AF4D2970DD08154083
:1024E00019091140AD4E317059091140AC4E31708F
:1024F00099090A40AB490A70DB09AB4A137083792A
:10250000DBB2AA4A1370AA4A1278934228D19E4B92
:10251000DA79A84B1A70002C4DD0A74B1B88452B9D
:1025200049D8A64B07221A705DE003250EE0042867
:102530000BD1A34B1A78924BDA7000221A71153224
:102540005A711E329A71072500E003258C4B5D708D
:102550009C4B012252421A809B4B00221A70B4E21B
:10256000934A1370994A10786422504380B200094C
:10257000C6B297485843974B198802F055FD010998
:10258000C9B23000FFF7D9FA0600934B1870BB2090
:10259000704380B28F2102F047FD80B28F4B1880CC
:1025A0001B889BB2BB2B02D98C4BBB221A803236C4
:1025B0008B4B1E70ABE7002D11D07F4B1B885A2B25
:1025C0000DD9794B1B78002B03D0864A1278002A4C
:1025D00001D1002B07D1794B06221A7003E06A4B18
:1025E0001A7A764B1A70002C02D17F4B00221A7097
:1025F000654B597A7D4A1170997AC9B27C4A11703B
:10260000DA7A7C4B1A707C4B18881A785C4BDA703B
:102610000009302202401A71784A12785A71664ACB
:10262000108812789A71000A07220240DA71744AFF
:102630001278012002401A72724A107840001A7A09
:102640000243D2B21A721A7A6F4804782401102019
:10265000204002431A721A7A6C48047864012020E0
:10266000204002431A721A7A69480478A401402073
:10267000204002431A72674A12889208D2B25A72F4
:10268000012937D0644B1A783D4B9A72634A1388FC
:10269000DBB23B4CE37213889B083F229343DBB2CF
:1026A000E2791343E3715E4A1388127822731B0A9E
:1026B00063734C4B1B78A3735A4B1B881B0A642013
:1026C0005843594B197802F0BFFCC0B2E073574A27
:1026D0001388127822741B0A6374554B1B780D2BD8
:1026E0003ED010D80B2B14D00C2B3DD1514B1B8856
:1026F0001B0A11E0504B1888093102F095FCC0B25A
:102700001F4B9872C2E70E2B2ED14C4B1B881B0A15
:1027100002E04B4B1B881B0A5AB2002A28DB184ADE
:102720009374274B1A78164BDA74464A12781A7546
:1027300045490A68D2B25A750A68120AD2B29A7525
:102740000A68120CD2B2DA7540490A8809781976FB
:10275000120A5A763E4A1278D2B29A761B25F5E6CC
:102760003C4B1B881B0AD7E73B4B1B881B0AD3E754
:1027700071225242D31ADBB2014A9374D1E7C046A8
:102780005C140020DE130020EC130020E91300206D
:10279000D9130020DC130020C71300204A140020A6
:1027A0005514002056140020D2130020501400208D
:1027B000511400207D140020AE130020E8130020E7
:1027C00039060020AA120020DA1300202E0600206D
:1027D000A0252600A41200202C06002014060020AC
:1027E0002D060020E51300207E1400204406002062
:1027F000E4130020571400208E120020CB13002079
:102800002817002077160020481400207914002093
:102810007A1400209E12002053140020D2160020AB
:1028200096120020DE1600203C060020AC1200208C
:1028300038060020E0160020AE120020E616002028
:10284000E2160020E113002024170020941200203B
:1028500074160020E4160020E816002001F066FC43
:10286000B14B00271F70B14B01261A7801210A4392
:102870001A70AF4B02221A70AE4B1E70AE4C237909
:102880001B02E2789B189BB2AC4A13806420584329
:10289000572102F0C9FB80B2A94B18801B88643B0A
:1028A000A84A1380A3791B0262799B18A64A138059
:1028B000E279A64B1A70A64B1F70237A01221800EA
:1028C0001040A449087059081140A34801709908A4
:1028D0001140A2480170D9081140A148017019099E
:1028E0001140A048017059090A409F490A70DB094C
:1028F0009E4A1370A37A5B009D4A1380E47AE4B287
:102900009C4B1C709C4B1E7014E09B4A1378013B3F
:1029100097495B005B5A1B02107801384000405A0F
:1029200060431B1A1B0A107840004352137801338E
:10293000DBB21370904B1B78DBB2772BE5D97E4C62
:10294000227B8E4B1A70227B8D4B1A70627B8D4BD3
:102950001A70627B8C4B1A70A07BC0B21823009354
:10296000AA3364220021FFF7C0F8884B1870E07B7F
:10297000C0B209230093403364220021FFF7B5F869
:10298000834B18703223E25CD2B2824B1A7033232D
:10299000E15C814B19703423E15C804B1970352365
:1029A000E15CC9B27E4B19703623E35CDBB27D4833
:1029B00003705B005B1ADBB29B1A7B4A13703723F0
:1029C000E05CC0B2193B0093E13364220021FFF7C1
:1029D0008CF8764B18703923E25C754B1A703823EB
:1029E000E35CDBB24F2B05D8704BA5221A70704BFD
:1029F000A33A1A70504C4D23E35C1B024C22A25C9C
:102A00009B189BB26B4A138019003C396A4A1180AB
:102A10006A4A13804F23E15C0902013BE35CC91859
:102A200089B2674B1980FA20400102F00DFB654B1B
:102A300018805023E25C51084F3B194062480170F6
:102A400092081340614A137006D0584B1B78A42B90
:102A500002D8564BA5221A705D4B544A12781A7050
:102A6000354B5122995C5B4A11705222995C5A4A4B
:102A7000117053229A5C594B1A703B4B1B78002BF8
:102A80000CD02D4B54229B5CDBB2554A1370642B47
:102A900000D85BE5130064221A7057E5504B002202
:102AA0001A7053E5234B1A784E4BDA7004254DE526
:102AB000314C2378DBB24B4AD05CC0B24A49FFF7B5
:102AC0005DF823780133DBB223702B4B1B78DBB22C
:102AD000AB42EDD3444A13881178424A51556C1CDD
:102AE0001B0A1355414B00221A70414A8A235B008E
:102AF000D3581B0E7F221A401E239B1A0235AB426D
:102B000004D23C4B00221A7003B0F0BD00239C425B
:102B1000F7DB344AD25CD2B23548C021490042507A
:102B20000133DBB2F3E7C0463A0600203906002045
:102B3000DD130020DE130020EC130020A212002081
:102B40007A060020A0120020240600202E06002075
:102B5000511400204D1400204B1400203F0600208B
:102B600058140020C8130020C91300203706002085
:102B7000B41200204C140020DA130020E3130020CC
:102B800041060020E2130020400600203506002008
:102B900033060020C1130020C3130020BF13002000
:102BA000C5130020C6130020C01300203D060020DE
:102BB000300600201E0600201C0600201A060020F9
:102BC000200600209C120020D8130020CF130020E4
:102BD0003E06002038060020DB1300203B060020C4
:102BE000CA1300205C140020AA120020DF1300206A
:102BF00000020048E713002070B52F4B1B78002B14
:102C00003ED02E4B012252421A802D4B5D78EDB200
:102C10002C4B00221A700CE02A4C2378DBB2284A95
:102C2000D05CC0B22549FEF7A9FF23780133DBB29F
:102C30002370244B1B78DBB2AB42EDD36A1C204BD4
:102C40009A5C12025B5D9B181C4A1288934207D063
:102C5000194B00221A701C4A13780133137013E0C9
:102C6000194B00221A70194B1B78002B02D1174BFD
:102C700001321A70124B9878C0B2FFF709FC03E0DA
:102C8000114A1378013313700F4B1B781E2B04D895
:102C90000E4B1B78002B0BD070BD01F047FA0C4B8C
:102CA00000221A700B4A137820210B431370EFE7B0
:102CB0000020FFF7EDFBEFE7E7130020A81200204C
:102CC000EC130020DA130020D0130020DD130020C5
:102CD0003A0600203906002070B582B0204B1888D3
:102CE000C72807D91F4B18221A701F4B0F3A1A70AA
:102CF00002B070BD1D4E33788008C0B21825009513
:102D000032220A21FEF7F1FE164C20703378184A61
:102D10001078009546221421FEF7E7FE23788342BF
:102D200001D9104B1870134E33780D4A1088800863
:102D3000C0B20925009532220A21FEF7D6FE0A4CC0
:102D4000207033780A4A1078009546221421FEF745
:102D5000CCFE23788342CBD9034B1870C8E7C0461A
:102D6000AE13002034060020320600203506002075
:102D7000E51300203306002010B5314B1C78314B91
:102D80001B78002B0ED0304B1B78002B0AD12F4B19
:102D90001A882F4B197878235B1A9A4202DD2A4B46
:102DA00001221A702B4B1B78002B3BD1264B1A7833
:102DB000002A03D1284B1B78002B32D0234B1988D3
:102DC000264B1B784B43544363431B0A5801C01ADC
:102DD0008000C018C000224B198802F025F984B287
:102DE0002409FFF779FF1F4B1A78A2421DD21E4B10
:102DF0001A701E4B1B78002B1AD01B4B1B78164ADF
:102E00001278934201D9144A1370174B124A127860
:102E10001A70154B1B78002B0ED0154B154A1278E3
:102E20001A7010BDFEF7CEFEC0E70F4B1C70E0E736
:102E3000094B00221A70ECE70D4B00221A70F0E7E4
:102E4000E9130020C9130020E5130020941200208C
:102E5000CA1300204D140020491400203B06002016
:102E6000A41200202C060020BE1300204A140020CB
:102E7000D51300203C06002070B5304B1B78002B8A
:102E80004ED12F4B1B78002B0ED02E4B1B78002BD6
:102E90000AD12D4B1A882D4B197878235B1A9A4248
:102EA00002DD284B01221A70294B1B78002B02D01F
:102EB000244B01221A70244B1B88002B03D0214A7B
:102EC0001278002A03D1234A1278002A27D0224AF6
:102ED000107858433C2102F0B7F8040085B2FFF7A0
:102EE000FBFE1E4B1A78AA421DD21D4B1A701D4BB9
:102EF0001B78002B1AD01A4B1B78164A1278934273
:102F000001D9144A1370164B124A12781A70144BD6
:102F10001B78002B0ED0144B144A12781A7070BD17
:102F2000FEF78AFEADE70E4B1C70E0E7094B00226E
:102F30001A70ECE70C4B00221A70F0E73F060020F5
:102F4000C9130020E513002094120020CA130020AA
:102F5000C813002049140020E91300202C0600208B
:102F6000BE1300204A140020D51300203C06002088
:102F700010B51A4B1A78002A27D0194B1B789B18CA
:102F80009B10184A1380184B1B78A42B02D8164BA1
:102F9000A5221A70FEF750FE134B144A12781A70CD
:102FA000104B1C88124A12881A80FFF795FE114BAD
:102FB0001A78A2420AD2104B1A700F4B1B78002BC2
:102FC00007D00E4B0E4A12781A7010BD0A4B1C70B7
:102FD000F3E70A4B00221A70F7E7C046E51300201A
:102FE000E9130020941200203D0600203E06002038
:102FF000981200202C060020BE130020D5130020BC
:103000003C06002070B53C4B1B78002B0ED03B4B90
:103010001B78002B0AD13A4B1A883A4B197878233F
:103020005B1A9A4202DD354B01221A70364B1B782F
:10303000002B02D0314B01221A70314B1C88002C1E
:1030400003D02E4B1B78002B03D1304B1B78002B69
:1030500044D02F4B1B78142B07D8D801C01A80B24C
:103060000A2101F0E1FF2A4B1870294B1B785B0005
:10307000FE214900C91A89B2264B1B78002B05D0C6
:103080001E4B1B788B422AD8C91A89B20A3189B2E1
:103090006443081901F0C8FF040085B2FFF71CFE65
:1030A0001D4B1A78AA421CD21C4B1A701C4B1B7861
:1030B000002B19D0194B1B78144A1278934201D96E
:1030C000124A1370154B114A12781A70134B1B7861
:1030D000002B0DD0134B144A12781A7070BD0021CA
:1030E000D4E70E4B1C70E1E7084B00221A70EDE7A5
:1030F0000C4B00221A70F1E7C9130020E5130020E1
:1031000094120020CA130020C81300204914002084
:10311000E9130020370600202C060020BE130020F3
:103120004A140020D51300203C06002070B53A4B0D
:103130001B78002B62D1394B1B78002B0ED0384BFB
:103140001B78002B0AD1374B1A88374B1978782314
:103150005B1A9A4202DD324B01221A70334B1B7804
:10316000002B02D02E4B01221A702D4B1D78002D02
:1031700003D12F4B1B78002B3FD02A4B1C88002CEF
:1031800006D02C4B187860433C2101F05DFF84B2DF
:10319000294B1B786B43294A128853431B0A580159
:1031A000C01A8000C018C000254B198801F03CFFF0
:1031B00080B20009844200D20400FFF78DFD214B4C
:1031C0001A78A2421DD2204B1A70204B1B78002B7C
:1031D0001AD01D4B1B78164A1278934201D9144A13
:1031E0001370194B124A12781A70174B1B78002B68
:1031F0000ED0174B174A12781A7070BDFEF71CFDDF
:1032000099E7114B1C70E0E7094B00221A70ECE7BC
:103210000F4B00221A70F0E73F060020C913002070
:10322000E513002094120020CA130020C8130020C8
:1032300049140020D9130020E9130020B012002007
:10324000A41200202C060020BE1300204A140020E7
:10325000D51300203C060020F0B583B0454B1B88F9
:103260005A2B05D8462B7AD9434A1278002A76D1B0
:10327000414A1278002A10D03F4900220A703F4983
:103280000A803F490A803F49FA20400008803E49B1
:103290000A803E490A803E4A13803D4A1088C01A7F
:1032A00082B200B2354B188036490B88D3181BB256
:1032B0000B80FA2189008B4253DD324B1980304B51
:1032C0001988521A15B2304A1580188084002D4B87
:1032D0000020185E03F010FE2E4A2F4B03F014FB63
:1032E00006000F00200003F007FE32003B0002F052
:1032F000ABFF06000F0068004019400003F0FCFD22
:1033000032003B0002F0A0FF03F0C0FD00B21F4BF3
:10331000188000282BDB1D4B00229A5EFA239B00AD
:103320009A4203DD194BFA2292001A801B4BF422B9
:103330001A701B4BAB3A1A701A4B1B4A12781A7050
:10334000124B0020185E8010C0B2184B1B780093FF
:103350000023FA220021FEF7C8FB154B187003B0BA
:10336000F0BD002BABDA074B00211980A7E7002244
:103370001A80D0E7AE13002031060020541200203E
:103380005812002056120020521200205012002025
:10339000AC130020333333333333E33F34060020A0
:1033A00032060020BE1300202C0600203C06002020
:1033B000D513002030B583B03E4AC7239B00D058B8
:1033C00080108005800D3C4B18803C4B1B78002BF7
:1033D00001D103B030BD3A4B1A783A4B19788008C6
:1033E000FF2300930023FEF780FB374B1870374B09
:1033F0001B78002B14D0364A1370364B1B78002BE9
:1034000006D0354B1B78002B02D1314B00221A70AD
:103410002F4B1878002810D12D4B00221A70D8E7B6
:103420002E4B1B78022B03D0294B00221A70E4E7A5
:103430000028F9D0264B1870DFE7294B1B78009342
:103440000023FF220021FEF750FB04000500254B5E
:103450001B788342E0D2244B1888FE2810D9234BD6
:1034600030221A70224B273A1A701D4B1B78AB4240
:103470001CD21C4A13701F4B1F4A12781A70CBE7DC
:10348000C0B230230093C433FF222821FEF72DFB66
:10349000164B1870144B1878092300934033FF2201
:1034A0002821FEF722FB124B1870DEE70D4B1C7033
:1034B000E1E7C046000803489E1200205514002092
:1034C000400600204106002053140020571400201D
:1034D000C413002056140020E5130020E41300203C
:1034E0002C060020BE130020AE130020340600205E
:1034F00032060020D51300203C06002010B5AF4B4B
:10350000C2221A70AE4B793A1A70AE4B00221A7072
:10351000AD4B1A70AD4B1B78002B21D0AC4B1B88E8
:10352000F52B1DD9AB4A1178C9B2AB4A1278D2B289
:10353000914215D2A94A1278002A11D10B33DBB27D
:10354000A74A13705B09A74A13701378DBB2052BE7
:1035500002D9130005221A70A34B01221A7002E04F
:10356000A14B00221A70A14B1B78062B02D0A04A57
:10357000012111709F4A1278002A1DD1082B3CD8D6
:103580009B009D4AD3589F46FFF7F6FB35E0FFF7B7
:1035900073FC32E0FFF7ECFC2FE0FFF733FD2CE08B
:1035A000FFF7C4FD29E0FFF757FE26E0FEF75EFEB9
:1035B00023E0FEF781FB20E0904B1A78642353430D
:1035C0001B11DBB27F4A13708F2B02D913008F229D
:1035D0001A708B4B1B78002B02D07A4B00221A708A
:1035E000884B1B78784A1370874A1278934201D32C
:1035F000754B1A70854B32221A70854B1B78012B44
:1036000000D1A1E0022B00D0A8E0FFF7D3FEFEF727
:10361000D5FC804B1B78022B00D1A7E0032B00D1F7
:10362000AAE07D4B1B889BB27C4A1288934204D24D
:10363000784B1B78042B00D1B2E0794B1B78002B20
:1036400014D0644A1278D2B2764909788A4200D8F6
:10365000AFE075490A7801320A70734A12789342D2
:1036600004D8674A137840210B4313706F4B1B78C3
:10367000002B03D16E4B1B78002B04D0604A1378CB
:1036800040210B431370534B1A789300D218530107
:10369000684A1360684A11685B18136067490A68D2
:1036A000013A0A60002A07D19B09654A136040224B
:1036B0000A60614B00221A60624B1B78002B14D108
:1036C0004F4B1B7878221A420FD15F4A1278002A9A
:1036D0000BD05E4A1278002A07D0002B00D1C9E037
:1036E0005B4B1B78002B00D0C4E05A4BC2221A70EF
:1036F000594BB93A1A70384B00221A70574B1A704E
:10370000514B1B78002B00D1EAE04E4A1278002A78
:1037100014D13B4A1278782111420FD12C4A1288D9
:10372000002A00D0DCE0274A1278002A00D0D7E037
:103730004B4A128892B2002A00D0D1E0424B0022BC
:103740001A7000F0F3FC10BDFEF76CFC454B1B78C3
:10375000002B00D15BE7FFF72DFE58E7414B1B78AC
:10376000002B00D153E7FFF725FE50E73E4B282200
:103770001A70284B253A1A703B4B1B78002B03D04C
:10378000394A013B13704CE7224B04221A70374B25
:10379000023A1A701A4A137801218B43137040E7DA
:1037A000174A137820210B431370314B01221A70F2
:1037B00043E71D4A002111704FE7C0463406002040
:1037C00032060020BE130020D5130020D81300209D
:1037D000AC1200207416002029170020C41300200A
:1037E000D71300202F1700202D170020E8130020EA
:1037F0003106002052140020D47100102F06002042
:1038000039060020360600203C060020E91300207F
:10381000E4130020DD130020D4160020A0120020A5
:10382000300600202D060020D6130020DD150020D4
:10383000DC150020B8130020B0130020280600205B
:10384000B4130020281700203A060020C7130020D8
:10385000C81300207D0600207C0600202C170020C5
:10386000DE160020571400205A120020DE1300201C
:103870007A140020264B1B788F2B02D9244B8F22E1
:103880001A70244B1A78224B1B789A4201D9214A8C
:103890001370214B1A78214B1B789A4201D91E4A8A
:1038A00013701F4B1B78172B02D81D4B18221A7050
:1038B0001C4B1B78082B02D81A4B09221A70184B84
:1038C0001A78194B1A70174B1A78184B1A70114B3B
:1038D0001A78174B1A70104B1A78164B1A700FE79C
:1038E000002B00D02FE7144B1B78002B00D02AE7C9
:1038F000124B1B889F2B00D925E7064B1B78002B0A
:1039000000D120E70E4B01221A7000F0EBFB1AE702
:103910002C060020BE130020D51300203C060020FA
:1039200034060020320600207D0600207C060020A0
:10393000291700202C17002028170020AC12002087
:103940003A060020030043434B4343431B0C8022B1
:103950005200521A5043C0188030000A704770B5A8
:10396000040000290CD000280BDB80235B00984268
:1039700000DD1800002906DBFFF7E4FF002C0ADB5E
:1039800070BD4042F1E7494280256D00281AFFF7DB
:10399000D9FF281AF2E74042F2E7000010B5444B85
:1039A0001B78772B1CD9434B1A88434B1A80434B07
:1039B0001A88434B1A80434B002119803D4B1B88CA
:1039C0009BB29A4233D29B1A9800C01840013E4BDA
:1039D000198801F029FB80B2A0282CD9A0202AE068
:1039E000344B188880B2394C21880422FEF7ABF89A
:1039F00020802F4A13780133DBB21370782B02D06A
:103A00002D4B1880D3E7324B1B78002BF8D0314B6D
:103A10001B88984207D9304B1B88984203D22F4B02
:103A200000221A70ECE72D4B01221A70E8E72C4BAC
:103A300000221A8000202B4B197814291ED000294F
:103A400005D0294B188801F0FFFA254B1880274B29
:103A50001B78143B5900C9188900214B1888FFF7BF
:103A60007EFF80B2174B1880214B1880214B1880A5
:103A7000214B1B784343214A138010BD204B1B88E8
:103A800083420BD2C31A9BB2632B0AD8144C164B39
:103A90001888142101F0C8FA2080D8E71B1A9BB2BD
:103AA000F2E70F4C21880522FEF74DF82080CEE783
:103AB0005B120020D2160020921200201E06002069
:103AC0001606002094120020200600201806002070
:103AD000581400201C0600201A060020C2130020E3
:103AE0009A120020BC1300208A120020C313002069
:103AF00098120020961200203B060020B0120020F1
:103B00005C12002010B500F06FFB1C4B1880FEF714
:103B1000F7F8FEF71FFAFEF719F9194B18780001AC
:103B2000142101F091FA174B1870174B18880001F7
:103B3000142101F089FA154B1870FFF72FFF144B71
:103B40001A78511C197003231340022B13D006D886
:103B5000002B0BD0012B0BD1FEF79CFA08E0032BB6
:103B600006D1FEF70FF900F0B3F901E0FFF744F8D2
:103B7000FFF7C4FC10BDFFF73FF8F9E7AC120020D7
:103B800074160020CB130020D0160020E113002073
:103B9000D113002070B5284B1B785BB2002B16DBCD
:103BA000254B00221A70254B1B889BB2244A128891
:103BB0009A4217D29B1A9800C0184001214B1988CD
:103BC00001F032FA80B2A0280DD9A0200BE01A4AE9
:103BD000002313701C4A13701C4A13801C4B0022D4
:103BE0001A701DE000201A4B1B781A4A59008C5A93
:103BF000194D2C808852154A1188401880B21080C7
:103C0000114A1278142A0CD00F4901320A7001337C
:103C1000DBB20F4A1370132B02D9130000221A7063
:103C200070BD844203D2094A001B1080EFE7074AA7
:103C300000211180EBE7C04631170020D21600208A
:103C40001606002020060020BC1300208A12002047
:103C5000BD130020601200205C1200200AE0254AFB
:103C60001370254B01221A7004E0562B20D9224BE9
:103C700000221A70214A8A235B00D3581B0738D4CC
:103C80001F4B1B78002B34D11C4A8E235B00D3586A
:103C9000DBB2194A1178CAB20129E6D0022A0FD044
:103CA000002AE7D1592BDAD0134B00221A70E1E732
:103CB000104A5370134A13700F4B02221A70D9E73F
:103CC000114A117802310B48435413780133DBB2A7
:103CD00013701278D2B20B4B1B78DBB29A42C9D365
:103CE000094B00221A70044B1A70054B01321A70EE
:103CF000C0E77047EC1300204F140020000200487A
:103D0000E7130020451400204414002010B55A4B3E
:103D100000E0013B002BFCD1FDF7B8FE002800D0ED
:103D200001BE8020400000F08FFF544B00245C60F7
:103D30006A225A641C64A021C9050B6850480340DC
:103D40009732FF3213430B604E490B6803401A430E
:103D50000A60FDF75BFA00F06DFF4B4B3C221A70D6
:103D60004A4B1C7000F000FA494B01229A60494B03
:103D700000E0013B002BFCD1474BC6229200995832
:103D80000902090A8020C0050143995080210905D4
:103D9000196098584149084080210902014399500F
:103DA00080218904196098583D4908408021090400
:103DB000014399508022D2041A603A4B1868FA21C4
:103DC000890001F031F9013880235B0498420DD25B
:103DD000354A50603548036A1B021B0AC021090698
:103DE0000B4303620023936007331360A023DB05BA
:103DF0000F22DA602E4A116B80235B000B431363A2
:103E0000244B00E0013B002BFCD12A4B5A680121D6
:103E10000A435A60284A9A60284B1A68284B1A604D
:103E2000244B254A9A60274B1B78002B19D0214B35
:103E3000214A9A60244B1B78002B15D11F4B1A681E
:103E4000224B1B88D31A0A2B11D81C4B1A681C4B07
:103E50001B68D31A192BE3D9194B1A60FFF752FECE
:103E6000DEE7FFF7FBFEE2E7FFF794FEE6E7174B1E
:103E70001A8000F0E3F8E8E7804F120000000340EA
:103E8000FFFCFFFF000004480C16002080140020F7
:103E900000000150C0D4010000E100E0FF00FFFF7E
:103EA000FFFF00FFFC3F002010E000E000ED00E01D
:103EB0000000014000000240FECAADAB0C1700201C
:103EC00084140020E7130020311700208214002002
:103ED00070B58CB0484B1B78022B19D00CB070BD5C
:103EE000464BA600F05801F09FF806AB9851A2008F
:103EF00006ABD358ED180134052C0CDC404B6200A6
:103F0000D15A0029ECD1A30006AA01319950EEE75D
:103F100000240025F0E7002D03D00024C026760100
:103F200014E0354B04221A70D8E7A20006ABD05833
:103F30000004290001F078F880B262006B46D0528C
:103F4000B6B203A95652801906B20134052CECDD35
:103F50008C235B029E4205D09A1B6B465B899B18A3
:103F60006A465381002209E053006946585A2549A0
:103F7000585203A9585A244958520132052AF3DDF0
:103F80001D4B05221A7003AB1A88803212121F498A
:103F90000A805A88803212121D490A809A8880321B
:103FA00012121C490A80DA88803212121A490A80D9
:103FB0001A898032121219490A805B8980331B12D8
:103FC000174A13806B461A88164B1A806B465A881C
:103FD000154B1A806B469A88144B1A806B46DA8808
:103FE000134B1A806B461A89124B1A806B465A89FA
:103FF000114B1A8072E7C04606160020EC1500200F
:10400000E0150020600600205406002088140020DF
:104010008A1400208C1400208E140020901400209C
:10402000921400204C1600204E160020501600203E
:1040300052160020541600205616002030B51D4B95
:104040001B78002B35D11C4BE022920099580905B2
:10405000090D1A4882581205120DE12080001B58E4
:104060001B051B0D164801601648026016480360C8
:104070004802164C2568E901491B0918C809206047
:10408000090C13480180510212480468E201121B16
:104090005218D1090160120C0F490A805A020F49C7
:1040A0000868C3011B1A9B18DA090A601B0C0C4A2A
:1040B000138030BD3A06002000080348000403487E
:1040C0009C150020A0150020A41500206C060020DF
:1040D00046060020700600204806002074060020D6
:1040E0004A0600200D4B01221A700D4B196BFF324E
:1040F0000A431A631A6B0B490A401A6309E0084B1A
:10410000196B802252000A431A631A6B05490A4050
:104110001A63054B9B68DB07F1D5704752060020F8
:1041200000000140FFFEFFFF000100500323034A8F
:104130001361034A1361034A136170470001005081
:10414000000200500003005010B5054A13784021CA
:104150000B431370034B00221A70FFF7E7FF10BDEB
:10416000390600203A060020084B5A6A91080123BC
:104170000B4051084900022001400B4392000421EA
:104180000A401343024A13707047C04600010440BE
:10419000751600200B4B19880A040B4B1A600B484C
:1041A000844662445A6000229A60DA601A619983F8
:1041B0002C215A545A619A619A775A621A629A6209
:1041C0007047C0465A1600201C1600200000C73158
:1041D000034BDB689B0A03485843000C7047C046FA
:1041E0001C16002065110000054BDA68120BD30085
:1041F0009B1859015B189800801A000C7047C04644
:104200001C160020034BDB681B0A03485843000CB4
:104210007047C0461C1600207513000070B50024BE
:104220001FE0214B6500E85A01F0BCFF1F4901F077
:10423000ABFCFC21890501F057FA01F03DFA1C4B5B
:1042400058531C4BA200D0581B4901F09DFCFC2187
:10425000890501F049FA01F02FFA184B585301343F
:10426000E4B2052CDDD9002408E08020C00500F070
:10427000DBFE134BAD0058510134E4B2042C0BD8D3
:104280002500631C0A4A5B00985A63009B5AC11AB6
:104290009842EAD10121E8E70A4B0B4A1A600B4B1E
:1042A00001221A7070BDC04630760010022B8F407C
:1042B0003417002018760010610B3643B416002026
:1042C0009C160020901600207F030000CC160020D2
:1042D00070B5154B1B88834205D2134B5B89834213
:1042E00004D9002307E0114B18881CE00F4B5889B4
:1042F00019E00133DBB21C005D1C0B4A6900895ACE
:104300008142F6D36600B35AC01A094AA400A358E2
:104310004343DB0B05496D006A5A705A121A534326
:10432000DB0BC01880B270BD34170020B41600201B
:104330009C16002070B5664B1B78002B07D0654A91
:10434000138801339BB21380042B03D870BDFFF791
:1043500065FFF4E7130000221A80FFF753FF5E4B5E
:104360001C68001B031169D0E4185B4B1C60A0B2F1
:10437000FFF7AEFF594B1880594B1A785949002561
:104380004B5F0988521A12B2961160D089190BB28C
:10439000544A13801A019B189BB2534A1380C018C9
:1043A00080B2524B1880C8235B01984203D94F4B0F
:1043B000C82252011A804E4B1B78002B50D14D4819
:1043C0000568AD114C4B196889114C4A15604C4A6F
:1043D0001160002202601A60454B40321A70EB17E0
:1043E000EE185E40CB17C918594000293BDD454BFC
:1043F0004B43DB13642B00DA6423434A1068002824
:1044000033D0424A4243D213984230DA3E4A1360D4
:104410003D4B1B68B34200DD00253D4B1B689C42B1
:104420002AD23C4B00221A603A4B1B883A4A13802E
:104430002E4A12889B18394A138087E7002894D0A7
:1044400002DD0123E41890E701235B42FAE7002A2A
:104450009ED003DD0123CB181BB299E7304BFAE75E
:1044600000210025BBE70121C1E71A00CCE7B242D9
:10447000CEDD254A1360CBE7002DD5D0EB17E81829
:104480005840C00300F0E0FD8001C013032812DD96
:10449000402812DC002D12DD1E4A13681B18136021
:1044A0001C4B1B681F4A93420EDB1F4A93420DDCD4
:1044B000184A1360B8E70420ECE74020EAE7154A01
:1044C00013681B1A1360EBE7164BF1E7164BEFE787
:1044D000CC160020CE16002098160020E2160020F0
:1044E0007416002094160020E0160020E416002028
:1044F000780600201016002014160020BC1500209D
:10450000C015002066060000B016002033730000BE
:1045100090160020C0160020E6160020E8160020A5
:10452000FFFF0000E4F8FFFF1C0700002D4B0022F6
:104530001A702D4B1B682D4A12689A4201D92B4BD9
:104540001B682B4A12689A4201D9294B1B68294AD9
:10455000934211D9284A11884B1C9BB21380142B0B
:104560000DD91180254B01221A701E4B1A70244B55
:10457000FA22D2001A8002E01F4B00221A80214B3F
:104580001A68214B9A4211D9204A11884B1C9BB2C0
:104590001380642B0DD911801D4B01221A70114B11
:1045A0001A70174BFA22D2001A8002E0174B002231
:1045B0001A80184B1B78184B00221A80104B1B884E
:1045C000002B0DD0013B9BB20D4A1380002B07D16D
:1045D0000A4A13700E4A1370104A1370014A13707E
:1045E0007047C0468C160020641600206816002014
:1045F0006C16002000A41F00C81600208F16002093
:10460000CA1600206016002000EB4100C6160020EC
:104610008E16002074160020C41600208D1600206F
:1046200010B56B4B1A786B4B1B78DBB29A4211D0EA
:10463000684B1B78002B02D1664B0A221A70654C1E
:1046400021789820400100F0EFFC634B188022781D
:104650005F4B1A70614B1A78614B1B78DBB29A4240
:1046600011D05F4B1B78002B02D15D4B0A221A70D0
:104670005B4C21789820400100F0D6FC594B188003
:104680002278564B1A70584B1B78002B36D1574B5B
:104690001B78002B32D1564B1B78002B32D1554B57
:1046A0001A78554B1B881B0A9A421BD3534B1A7816
:1046B000D2B2534B1B78DBB29A4213D3514B1A88B8
:1046C00092B2514B1B889BB29A420BD84F4B1A881F
:1046D00092B24F4B1B889BB29A4203D34D4B1B782F
:1046E000002B30D04C4B1B88002B1BD03D4A12882E
:1046F000934213D948499B1A0B8002E03E4B00229B
:104700001A8010BD3C4A1188C90813885B1A9BB2F5
:104710001380424A136801331360F2E73E4B0022D4
:104720001A80EEE7344B1B889BB22E4A12889342C4
:1047300005D931490B889B1A9BB20B80E1E72E4BC0
:1047400000221A80DDE7364B1B88002BD9D1294B7C
:104750001A78294B1B881B0A9A421DD9274B1A78B5
:10476000D2B2274B1B78DBB29A4215D9224B1A885A
:10477000194B1B88D218F0235B019A4206D3294BB0
:104780001B781B02934203D3130001E0F0235B016B
:104790009BB2194A1380B4E7234B1B78002BB0D08F
:1047A000154B1A8892B21F4B1B781B029A42A8D154
:1047B000194B1B88084A12889B181C4A127812024F
:1047C0009A4202D2194B1B781B02134A138098E7B6
:1047D0002B1700207D060020DA1600202A17002063
:1047E0007C060020D8160020DD150020DC150020F6
:1047F0008C1600202C170020DE1600202917002020
:1048000074160020D016002014060020D4160020B4
:104810007A06002028170020DC16002080160020D1
:10482000CA1600203C0600202D1700202F1700205C
:1048300010B57C4A1368013313607B4B1968012360
:10484000002401E00133DBB2042B07D8764A98003C
:1048500082589142F6D211001C00F3E7734B1B689B
:104860008B422CD0714B1960042C1BD0704B1B78E1
:104870005BB2002B00DA98E06B4A9B009A586D4BB4
:104880001B68934200D198E0D31A9BB26A490B800F
:10489000684B1A60694B01221A70694A1378013318
:1048A000137008E0644B00221A80614BFF321A70CB
:1048B000624B7F3A1A705B4B1A68624B1A60594B15
:1048C0001B68604A12689B1A5F4A128893420DD98E
:1048D000594B00221A80564BFF211970554B1A6014
:1048E000564B80321A70564B00221A70574B1A687A
:1048F000574B1B68934215D0002B00D0D31A544954
:104900000A60484A1168534A1160002B0AD0962267
:104910009200934206D99BB24F4A13804F4A1368C4
:10492000013313603F4B1B684A4A12689B1A4C4A7A
:10493000934204D9484B00221A80454B1A60494AD9
:10494000C7239B00D25892109205920D46480188C9
:104950004900511803885B189B109BB2018889B2EB
:10496000994234D0404A1380404AC6239B00D35812
:104970009B109B059B0D3E4A13803E4B1B889BB2B0
:10498000002B33D03B4B1B889BB28022920093427A
:1049900027D9394B18780002364B1988090A00F0DC
:1049A00043FB80B2354B188023E0214B1C70214B18
:1049B0001960234B00221A707DE71F4B1B889BB2A6
:1049C000002B00D077E71C4B2D4A1A8073E79A42E0
:1049D00002D901339BB2C5E79A42C3D2013B9BB2D5
:1049E000C0E7254B1B78254A138002E0234B0022A9
:1049F0001A80244B5A6A920A012313405A425341A7
:104A0000DBB2214A1370FFF795FCFFF78FFDFFF72C
:104A100007FEFFF7DDFB1D4B1860FFF7E5FB1C4BA6
:104A2000186010BD0C170020EC1600201417002091
:104A30007906002010170020D6160020311700201C
:104A40003017002004170020220600202017002025
:104A50001817002008170020EA160020241700204D
:104A60003508000000040348D2160020000803485F
:104A7000D4160020DE16002074160020D016002068
:104A8000C21D0000000004402817002088160020E6
:104A900084160020064B1A89802149010A431A8195
:104AA00048215A5A8020000102435A527047C0469A
:104AB0000000054010B50D4A13681B0AFF210B408A
:104AC0000B480360126811400A4A1160002B08D09D
:104AD0001B02C918084800F0A7FA4000074B1860ED
:104AE00010BD064B064A1A60FAE7C04600030140B3
:104AF0004417002040170020000024F4FC3F002051
:104B00000048E80110B5FFF7C5FFFCF7B1FF10BD85
:104B100070470000F0B5C64600B58B0898460433D0
:104B20009B001E5803250D40ED00F827AF40BE4303
:104B30001E50436F4F000326BE40B3434367CB086C
:104B400010339B001F5807260E40B6000424B440C3
:104B5000A7431F501F585478B44026003E431E50B0
:104B60000D4B98420ED00023D356002B10DB43464A
:104B700004339B0019581278AA400A431A5080BC8B
:104B8000B846F0BD036E01268E40B3430366EAE7E4
:104B900053688B404360EAE70002044010B50C0004
:104BA0000DE0800808490B68084A134002021343CD
:104BB000074A13430B60044B1B685B00FBD4A30044
:104BC0008342EED310BDC04600030140FF000FC07A
:104BD0000000F03F30B50C000EE0012290000A49C1
:104BE0000B680A4D2B4092021343094A13430B6092
:104BF000054B1B685B00FBD48300A34203D2002853
:104C0000EBD00200EAE730BD00030140FF000FC017
:104C10000000F03F014BC3225A6270470000014080
:104C2000034BC0225A62024B5B6A5B07FBD470479E
:104C300000000140034A938C01210B439BB29384F3
:104C40007047C0460010014010B50400FFF7E8FFB0
:104C5000054B186920431861034B1B685B00FBD4AC
:104C6000FFF7D8FF10BDC04600030140034B9B680F
:104C700003405A1E9341D8B27047C046000301401A
:104C800070B504000D00FFF7CBFF154B1A68120A30
:104C9000FF2010401968134A11402943124A0A4361
:104CA0001A600F4B1B685B00FBD4A04214D8210094
:104CB000FFF790FF0A4A13680C490B4024021C437B
:104CC000094B23431360064B1B685B00FBD4FFF7C3
:104CD000A1FFFFF7EFFE70BD2100FFF75FFFE9E7DF
:104CE0000003014000FF0FC00000F03FFF000FC0B5
:104CF00010B50400FFF794FF074A136807490B40FB
:104D0000A1680B4361680B431360FFF783FF607872
:104D10002178FFF7B5FF10BD00030140FFFFF0FF52
:104D2000014B18687047C046FC3F002010B5044B8B
:104D3000984200D010BD0420FFF786FFFAE7C04676
:104D40000000044870B505000C00FFF7EFFF80235A
:104D50005B00EB602B68034A1340A4031C432C60E8
:104D600070BDC046FF3FFFFF03680A0C9343090470
:104D7000090C1943016070470B6843614B799B062E
:104D8000DB0F1B0543600B791B071B0F43624B793D
:104D90001B071B0F03624B79DB06DB0F83610B796B
:104DA0001B09C36270470B6843614B79DB07DB0A61
:104DB00043600B791B071B0F43620B791B09C3620E
:104DC0007047000010B543680324A34319434160B2
:104DD0004369012A03D0044A1340436110BD802275
:104DE000D2001343F9E7C046FFFBFFFF43683022C0
:104DF00093430901194341607047F0B5C64600B5B9
:104E00004C1EE4B206686500EDB22F001037FFB209
:104E100003239846BB409C4633006646B3439C46FA
:104E20005378BB40664633431531CFB20121B940B8
:104E30008B439178B94019431935EDB24646AE40DF
:104E4000B143D378AB400B43A100C9B20F248C40CF
:104E5000A34312788A401343036080BCB846F0BD78
:104E600030B50B291AD889000D4B5B589F46032596
:104E700000240DE0C0252D010A2409E0C025AD0065
:104E8000082405E00C25022402E0C025AD010C2415
:104E9000A8214358AB43A2401A43425030BDC046FC
:104EA0003C76001010B5A023DB05984200D010BD61
:104EB0000220FFF7C9FEFAE770B505000C00FFF706
:104EC000F1FF80235B00EB602B68034A1340A403CF
:104ED0001C432C6070BDC046FF3FFFFF01230361F0
:104EE0000B6843614B7BDB06DB0F1B0543600B7BD1
:104EF0001B071B0F43620B7B1B09C3624B7B1B070A
:104F00001B0F03624B6883618B68142253408364D8
:104F1000704703680A0C93430904090C19430160A4
:104F20007047000010B543680324A3431943416050
:104F30004369012A03D0044A1340436110BD802213
:104F4000D2001343F9E7C046FFFBFFFFF0B5C646AA
:104F500000B54C1EE4B206686500EDB22F001037B4
:104F6000FFB203239846BB409C4633006646B343DA
:104F70009C465378BB40664633431531CFB201217E
:104F8000B9408B439178B94019431935EDB2464683
:104F9000AE40B143D378AB400B43A100C9B20F245C
:104FA0008C40A34312788A401343036080BCB84608
:104FB000F0BD41637047000030B50B291DD8890052
:104FC0000E4B5B589F460024032510E00A24C025A1
:104FD0002D010CE00824C025AD0008E00424302594
:104FE00005E002240C2502E00C24C025AD01A82117
:104FF0004358AB43A2401A43425030BD6C76001078
:105000004B6803658B6843650B68C364704710B5D4
:10501000436F490003248C40A3434367436F8A4096
:105020001343436710BD000010B5EFF3108272B652
:10503000044B04245C6318625962986A82F31088F6
:1050400010BDC0460000034010B5EFF3108272B6E9
:10505000044B00245C6318625962986A82F31088DA
:1050600010BDC0460000034010B5044B984200D06C
:1050700010BD8020FFF7E8FDFAE7C04600000150B0
:1050800070B504000D00FFF7EFFF0323E3602B680A
:10509000236070BD03689B0705D103680A6813434A
:1050A0000360002070470120FCE710B5436F10310A
:1050B00001248C40A3438A401A43426710BD00007C
:1050C000F8B504000E00170000F052F9357A002DF3
:1050D00000D11035002F07D03379002B26D031684E
:1050E0002A00200000F088F8F379013B5B006D088E
:1050F00001352D022B43144A1343E3637379013BBB
:105100001B068122520013436363B379002B13D033
:10511000626B013B1B0413436363A023DB00A363A7
:1051200001235B42E36473892364F8BD31682A007C
:10513000200000F00BF8D7E7626B7379013B1B048A
:1051400013436363E9E7C04601000300F0B5DE46A0
:105150004F4680B583B083460C001500632941D9C2
:10516000002A01D101203EE0FFF7DAFD6421FFF7BC
:105170005BFF814664212000FFF756FF07001C4EAD
:10518000012301938023DB0000931C0000E0013C1D
:10519000002C12D03900694348466043FFF744FFB2
:1051A000830A8005800D8022D2009342EFD8864288
:1051B000EDD9060001930094E9E7009F013F8023A9
:1051C0001B023B435A46136153690A4A1340013D8F
:1051D000AD022B43019E013E360433435A465361D0
:1051E000002000E0012003B0C0BCBB46B146F0BDCA
:1051F000FF030000EF8000FCF0B5DE4657464E4648
:105200004546E0B583B08046894617000192FFF716
:1052100087FD06004B465F43B8424ADD3900FFF781
:1052200013FF0400012506E0013529007943300011
:10523000FFF70AFF0400204B9C42F5D8019F39007C
:10524000614369433000FFF7EFFE8346631C9A46D3
:105250003900594369433000FFF7E6FE4B46181A00
:10526000C317C01858404B465A469B1ADA179B186A
:105270005340984200DBA2468022D2005346D21A05
:105280008023DB0113434246136153690B4A1340E9
:10529000019F013FBF023B43013D2D042B4342468A
:1052A0005361002003B0F0BCBB46B246A946A046FD
:1052B000F0BD0120F6E7C046FE030000EF8000FCD1
:1052C00070B504AC24784569094E3540002A0DD0EC
:1052D000102211431B0419430C43059B1B021C4362
:1052E000069B9B021C432C43446170BD0022F0E7E7
:1052F0002C8000FC70B584256D004459064E344066
:1053000044514459054E34401B020B4312061343CB
:105310001C43445170BDC046FFFFFFF8C0C0FFF8FA
:1053200070B586256D004459074E344044514459A8
:10533000064E34401B020B43120613431C438023CA
:105340005B052343435170BDFFFFFFF8C0C0FFEF73
:1053500010B5064B984200D010BD0820FFF774FC32
:105360000820FFF783FC0028FAD1F5E70800004881
:1053700010B504009023DB0598420CD0084B9842EE
:1053800009D00323E360E368DB07FCD5236C0F221D
:105390009343236410BD0348FFF7DAFFF1E7C046EB
:1053A000000200480800004810B5034BFF221A60B5
:1053B0000120FFF749FC10BD0005014070B5040055
:1053C0000D00FFF7F1FF6B6923606A6880231B0201
:1053D00013438022A350AA68A023E250EA68043352
:1053E000E2502A69DD33FF33E2502A68C93BFF3BB4
:1053F000E25070BDF0B5C64600B5002A19D1CA0604
:10540000D20E90464905490F1F26E022D20094464D
:105410000025082728339B001C5862469443B94056
:105420002143B1434246AA400A431A5080BCB846C1
:10543000F0BDCA02D20E90464901490FF826760304
:10544000E022D204944610251827E3E770B5040043
:105450000D00496800230022FFF7CCFF6968002394
:1054600001222000FFF7C6FFA968012300222000C7
:10547000FFF7C0FFA968012301222000FFF7BAFF50
:105480002A698023E250EA683833E2502A685307D9
:105490005B0F9101890D09040B43F821490063500A
:1054A000D300DB0F1B071001800F80060343900021
:1054B000C00F400703435200D20F920713436258B4
:1054C0001343802212061343635070BD10B580222F
:1054D00083580324A3431943815010BD10B58A4259
:1054E00000D90131C02283580324A34319438150BA
:1054F00010BDC022835803218B43835070470000A6
:1055000030B50025002300E00133012B06D8094AFD
:105510009C00A2588242F7D11D00F5E78D4200D9C8
:105520000131C0240359033101228A40134303513E
:1055300030BDC0469C76001010B58423C258184C6C
:105540002240C250C458813B9C430A7813079B0FEA
:105550002343920701D008221343842283504A68D0
:10556000104B13438022520083508B68FF3A134341
:105570000432FF3283500A7803231340022B06D0F3
:105580008422815880235B040B43835010BD822208
:105590005200815880235B020B438350F0E7C046E2
:1055A000FFFFFFFE0080808070B5137B8826845942
:1055B00001258D40AC438B40234383510D23D356AB
:1055C000002B17DB012908D0002922D1B024035970
:1055D0001F25AB4303510E0005E0B02403590E4DC7
:1055E0002B400351803EB02543590D241457B4403D
:1055F00023434351C824035955682B4303510834AE
:10560000035995682B4303511368803189000B506F
:1056100070BD0026E7E7C046FFE0FFFF10B5802021
:105620008000FFF711FB10BD10B50400FFF7F6FF77
:10563000A268034B5A6062681A6122685A6110BD01
:1056400000000240844608006146FFE71FB500F0F5
:1056500057FA002801D40021C8421FBD10B500F040
:10566000E3F94042013010BD10B500F049FA0028BE
:1056700001DB002010BD012010BDC04610B500F0B8
:105680003FFA002801DD002010BD012010BDC046FA
:1056900010B500F0EFF9002801DC002010BD01205A
:1056A00010BDC04610B500F0E5F9002801DA002071
:1056B00010BD012010BDC0469E2110B5C905041CB7
:1056C000FFF7F0FF002803D1201C00F04BFD10BDB8
:1056D0009E21201CC90500F0A5FB00F043FD80239E
:1056E0001B069C466044F2E7F8B54746CE464A02A0
:1056F00043024500C40F500A804648005B0A000E72
:105700009209944680B51E00814602002D0EDF00EE
:10571000C90F8C4224D0281A00280EDD002A3ED161
:105720006246002A00D1FDE0421E012800D137E187
:10573000FF2800D1A9E0100039E0002863D04B46D3
:10574000521B002D00D0E0E0002F00D1CEE0531E10
:10575000012A00D155E1FF2A00D194E01A00D9E0D6
:105760002A1A002A00DC99E0002862D0FF2D00D11F
:105770008BE080236146DB0419438C461B2A00DC46
:10578000D2E00123DB195A016AD50135FF2D5BD028
:105790000122A3491A405B080B4013431CE0FF2D74
:1057A00000D172E080236246DB041A4394461B2832
:1057B00000DC90E00123FB1A5A0151D59B019E09A0
:1057C000300001F0C9FB330005388340854200DC1E
:1057D00075E0944A2D1A13405A0704D00F221A403C
:1057E000042A00D004335A013CD5681CFE2D2BD06E
:1057F0009B015E0AC0B2C0053043E4072043C0BC31
:10580000B946B046F8BDFE206A1C104272D1002D88
:1058100000D0AEE0002F00D1ECE063460020002B6A
:10582000E9D0FB1A5A0100D4F3E063460C00DB1BFD
:10583000D2E7614600295BD0511E012A00D1A7E0C2
:10584000FF2A22D00A0099E7FF200026D3E7FE2195
:105850006A1C114273D0FF2AF6D0150067447B08FA
:105860005A07BBD1DB08FF2D0FD05B025E0AE8B2FE
:10587000C1E76246002A08D08022D203134204D036
:105880004046104201D10C004346002BDCD080265C
:10589000F6031E437602FF20760AACE7002AD6D034
:1058A000421B002D5CD0FF28EED08023DB041F4379
:1058B0001B2A00DC82E001234D46634463E720227B
:1058C000401B0130121A19009340C1405A1E9341E7
:1058D00000250B4380E7202361461B1A994062464E
:1058E0000B00C240591E8B41134364E70C00434632
:1058F0001500B8E76346FE1A730145D4002E00D0A8
:105900005EE700240020002675E7FF2BBBD0802334
:10591000DB041F431B2A47DD012362460C004D4672
:10592000D31A49E705009EE761462023D1409B1A20
:1059300062469A4013005A1E93410B4322E7002D02
:1059400046D1002F62D063460020002B00D152E7E1
:105950003B0063445A0183D5324A013513407FE747
:10596000002FC4D0531E012A12D0FF2A8CD01A0057
:105970009EE7002F00D07CE76346002B83D1802672
:105980000024FF20F60336E763460C00DE1B17E712
:105990003B00634401255A0100D461E70225F7E684
:1059A00063460125FB1A07E720239B1A38009F4016
:1059B0003B00D0405A1E93410343AEE720239B1A7D
:1059C00039009F403B00D1405A1E93410B4373E77F
:1059D000002F00D158E76246002A00D155E7802207
:1059E000D203134200D150E74146114200D04CE7A8
:1059F00043464AE76346002B83D00C00464600200E
:105A0000F9E663460C00DB1B0135D5E6464600206F
:105A1000F1E6002B00D023E700240026EBE6C04689
:105A2000FFFFFF7DFFFFFFFB70B5420045024E0206
:105A30004C00C30F6D0A0120120E760A240EC90F06
:105A4000FF2A06D0FF2C03D0A24201D1B54206D0D6
:105A500070BD002DFCD1FF2CFAD1002EF8D18B4265
:105A600006D00120002AF3D12800431E9841EFE719
:105A70000020EDE770B5420045024E024C00C30F16
:105A80006D0A120E760A240EC80FFF2A1BD0FF2CB7
:105A90000ED0002A1BD1002C01D1002E1CD0002DCD
:105AA0000CD083421CD00221581E0840013870BD22
:105AB000002E22D1002AF4D1002DF2D10028F6D1F7
:105AC00001204042F3E7002D17D1FF2CF0D0002C2D
:105AD000E7D1002EE5D1E6E70020002DE7D0E2E790
:105AE000A24205DCEADBB54202D8E7D30020DEE7BC
:105AF0004342584140000138D9E702204042D6E7EE
:105B000070B5420045024E024C00C30F6D0A120EE2
:105B1000760A240EC80FFF2A0BD0FF2C0DD0002AC6
:105B20001FD1002C16D1002E14D10020002D10D032
:105B300009E0002D0CD1FF2C13D1002E08D1002A32
:105B400008D0834212D00221581E0840013800E0DC
:105B5000022070BD002DF4D10028FAD1012040426E
:105B6000F7E7002CEDD1002EEBD1ECE7A24205DCEB
:105B7000F2DBB54202D8EFD30020EAE743425841B6
:105B800040000138E5E7C04643025B0AF0B54F46E6
:105B900046469946D646C30F45009846C0B54B4683
:105BA0000F1C2D0E00D1CBE0FF2D00D1CFE08022C5
:105BB000DB00D2041A430023914600269A467F3D1B
:105BC0007C027B00640A1B0EFF0F002B00D1A9E0B2
:105BD000FF2B11D08022E400D204144342467F3BC5
:105BE0005B197A400020D2B25D1C0A2E13DD3A0008
:105BF0000B2E47D047463FE02B00FF33002C1ED131
:105C000002221643424601357A40D2B2FF350A2EAF
:105C100000DDE4E00220022E1CDC013E012E42D811
:105C200002283DD0012866D100200021C00508438C
:105C3000D2071043E0BCBA46B146A846F0BD0322E5
:105C40001643424601357A40D2B2FF350A2E00DDB6
:105C5000E4E003200121B140A626F60031420AD13A
:105C60009026B600314216D1B93EFF3E0E421AD000
:105C7000A146824600E0170053463A00022B0FD09F
:105C80004C4650460328CDD18021C9032143490207
:105C9000FF20490ACAE780210022FF20C903C5E787
:105CA000FF200021C2E7200C49462404240C2700D1
:105CB0000E0C0904090C74434F4346434843390C06
:105CC000001909188C4203D980204002844666449A
:105CD0003F0408043F0CC0198401671EBC41090C35
:105CE000800E8919044389010C43090171D50123F0
:105CF00061081C400C432B007F33002B51DD6107F2
:105D000004D00F212140042900D00434210103D5FF
:105D1000434B1C402B008033FE2BC1DCA101490A00
:105D2000D8B283E7002C2CD1012342461E432B001E
:105D30007A400120D2B25D1C0A2E00DD57E76AE7E7
:105D4000002B10D10123042600259A4638E7002BAA
:105D500004D102230826FF259A4631E703230C26A7
:105D6000FF259A462CE7484601F0F6F84A46431FBD
:105D700076259A4000236D42914600269A462D1AB8
:105D80001EE7200001F0E8F84246431F9C402B1A12
:105D9000763B7A400020D2B25D1C0A2E00DD26E759
:105DA00039E70121CB1A1B2B00DD3DE79E35210091
:105DB000AC40D940631E9C4121434B0704D00F23C4
:105DC0000B40042B00D004314B0104D501200021ED
:105DD0002CE71D008FE789010020490A26E70223EE
:105DE0000F2E0CD180214B46C9030B420DD00C4223
:105DF0000BD1214349023A00FF20490A16E70B2E36
:105E000000D0F7E6A1469A4636E780214B46C90303
:105E1000194349024246FF20490A07E70323DFE707
:105E2000FFFFFFF7F0B5C64643025B0A4500DA0004
:105E3000C40F48024F009446420A1E00904600B527
:105E40002D0E3F0EC90F8009FF2F59D0012251405E
:105E50008C4239D0EA1B002A58DD002F68D0FF2D74
:105E600000D1D1E08023DB0418431B2A00DCE3E0EF
:105E700001236246D31A5A0100D4ACE09B019E096B
:105E8000300001F069F8330005388340854200DCBA
:105E9000C6E0B24A2D1A13405A0704D00F221A4006
:105EA000042A00D004335A0100D497E06A1CFE2D66
:105EB00000D184E09B015E0AD2B2D0053043E407F2
:105EC000204380BCB846F0BDEA1B002A41DD002F0C
:105ED0006BD0FF2D00D197E08023DB0418431B2AF1
:105EE00000DCCCE0012363445A0174D50135FF2D59
:105EF00065D001229A491A405B080B401343CBE757
:105F000000281FD08C4222D02A00FF3A002A35D028
:105F10007A1B002D00D099E06346002B00D1DDE014
:105F2000531E012A00D105E1FF2A6BD01A0094E02C
:105F3000002873D0511E012A00D1DFE0FF2A63D070
:105F40000A0092E701225140A14200D082E72A00D4
:105F5000FF3A002A36D07A1B002D00D1AAE0FF2F8D
:105F600000D1DAE080236146DB0419438C461B2A0A
:105F700000DCD4E001233D001B18B5E7FE276A1CB6
:105F8000174271D1002D00D09EE06346002B00D156
:105F9000D5E00022002800D18FE71B1A5E0100D453
:105FA000D6E063460C00C31A76E7002836D0511EAF
:105FB000012A00D19AE0FF2A26D00A008FE7FF22AB
:105FC00000267AE7FE276A1C174262D0FF2AF6D025
:105FD0001500604443085A0700D05FE7DB08FF2D37
:105FE00012D05B025E0AEAB267E76246002A00D17D
:105FF00093E0002808D08022D203134204D0404608
:10600000104201D10C004346002BD8D08026F60365
:106010001E437602FF22760A4FE743461500DEE76D
:106020002022401B0130121A19009340C1405A1E11
:10603000934100250B432FE720239B1A0100984032
:106040000300D1405A1E93410B4312E7FF2FD9D0D2
:1060500080236446DB041C43A4461B2A52DD012333
:106060000C003D00C31A06E763461E1A730139D4BB
:10607000002E00D004E70024002200261DE7202384
:106080009B1A010098400300D1405A1E93410B43D4
:1060900029E7002DA9D16346002B56D00022002805
:1060A00000D10AE7030063445A0194D52B4A013515
:1060B000134090E76346002BAFD0531E012A15D042
:1060C000FF2A2AD01A0052E76246002A91D10028FE
:1060D00098D180260024FF22F603EEE60C0043460A
:1060E00015007CE763460C00C61AC9E6030063444A
:1060F00001255A0100D46EE70225FAE66346012520
:106100001B1AB8E664462023D4409B1A62469A4084
:1061100013005A1E93412343A2E7434674E76146A6
:106120002023D1409B1A62469A4013005A1E934185
:106130000B4320E763460C000125C31A9BE60028A9
:1061400099D00C0046460022B7E646460022B4E647
:10615000002B00D03FE700240026AEE6FFFFFFFB48
:10616000FFFFFF7D41024200C30F490A0020120ECB
:106170007E2A03DD9D2A02DD094A98187047802097
:1061800000040143952A07DC9620821AD140484238
:10619000002BF3D10800F1E7963A9140F7E7C046AB
:1061A000FFFFFF7F70B5002813D0C317C5185D40EF
:1061B000C40F280000F0D0FE9E2301001B1A962B6E
:1061C0000FDC082831D008398D406D026D0AD8B235
:1061D00002E0002400200025C0052843E4072043F6
:1061E00070BD992B0CDD0522121A2800D040020048
:1061F00008001B3085402800451EA84102431500B9
:10620000052916DC2A000F4802406E0709D00F2628
:106210003540042D05D00432550102D59F2302409C
:106220005B1A9201550AD8B2D6E76D0296206D0A24
:10623000D2E74A1F95402A00024802406E07F0D07C
:10624000E5E7C046FFFFFFFBF0B54F464646D646A2
:106250000400C0B51F000B0310004E005B0ACD0FF9
:10626000610F7A001943E3003C03FF0FBC46640A48
:10627000470F2743760D520DC000B9468046B71A26
:10628000654500D19BE0002F00DC84E0002A00D1AE
:10629000BEE0C84A964200D124E180224C46120456
:1062A0001443A146382F00DD67E11F2F00DDD6E142
:1062B00020224C46D21B9440A2464446FC4020007B
:1062C0005446044340469040421E90414A46FA409C
:1062D0000443891A1C1BA342924152428B1A9A46CC
:1062E00053461B0200D4D4E053465A02530A9A463E
:1062F0005346002B00D104E1504600F02DFE030070
:10630000083B20222000D21A5146D040994002007A
:106310009C400A43B34200DA02E19B1B591C1F292F
:1063200000DDA7E02023100026005B1A9C40984067
:10633000CE40CA40631E9C4130439246002604432F
:10634000630709D00F232340042B05D0231DA3424C
:10635000A4416442A2441C0053461B0200D49BE0AB
:10636000944B01369E4200D1B8E053469249E4086E
:106370000B4019005B07234372054C02240B520D9E
:106380001205ED0722432A4318001100E0BCBA466B
:10639000B146A846F0BD002F48D0971B002E00D074
:1063A0000EE10C001C4300D1B7E17C1E012F00D18F
:1063B00026E2804DAF4200D1D5E1270007E1002F52
:1063C00000DCB2E0002A47D07A4A964200D189E048
:1063D00080224C4612041443A146382F6BDC1F2F39
:1063E00000DC6EE13A004846203AD0408446202F37
:1063F00007D040224846D21B90400200404610433E
:1064000080464046421E904162460400144357E0D5
:106410004A46024300D103E17A1E012F00D193E1E5
:10642000644CA74200D18AE117003BE7634C721C21
:10643000224200D0E0E00A001A43002E00D074E1AE
:10644000002A00D1D0E14A46024300D0E3E14A07E6
:10645000DB081343C90829E04A46024300D17DE125
:106460007A1E012F00D1E0E0524CA74200D166E134
:106470001700B2E710001F3BD840202903D040236B
:106480005B1A9A401443631E9C41002300269A46DF
:106490000443630700D055E75246E308520713430D
:1064A00052463700D108434A97421FD009037A0564
:1064B0000C0B520D64E742464C461443621E944155
:1064C000E4189C429241524292468A4453461B022F
:1064D000DFD5384B01369E4200D0B3E032000024B5
:1064E00000234DE74A07DB081343C9081A000A4393
:1064F00000D100E2802424030C4324032D4A240B02
:106500003EE7200000F028FD030018331F2B00DCBD
:10651000F7E62200083882400024B34200DBFCE6A4
:10652000F61A254B1A4092460AE7002F2BD0971BEC
:10653000002E00D1B8E01F4CA24200D11CE1802403
:1065400024042143382F00DD1EE11F2F00DD9EE1D2
:1065500020260C00F61B1800B340B440F8405E1E25
:10656000B341F94004431C438944444444459B419E
:106570005B424B449A461600A8E742464C461443F9
:10658000621E9441A6E60D4C721C224200D0A8E087
:106590000A001A43002E00D00AE1002A00D15EE171
:1065A0004A46024300D061E14A07DB081343C908A9
:1065B0007CE7C046FF070000FFFF7FFFFE070000EB
:1065C000CF4CA24200D1CEE0802424042143382FB6
:1065D0005BDC1F2F00DDDCE020250C00ED1B1E0026
:1065E000AB40AC40FE405D1EAB413443F9401C4320
:1065F0004B465B1A99464CE04A461C1A881AA3423D
:1066000092415242924602005046121A924612029B
:1066100078D45346234300D06AE60021002545E79D
:106620004A07DB081343C9083DE71C189C429B41FD
:1066300049448A465B429A44534601261B0200D4D1
:1066400027E702265246AF4B01211A401300214092
:1066500062080A43DC075B089A46144370E63A0076
:106660004C46203AD440A446202F07D0402248462A
:10667000D21B904002004046104380464046421ED6
:10668000904162460400144324E619430C00631E43
:106690009C4143461C1BA0459B4149465B42CB1A8B
:1066A0009A46654616001BE60C001C4300D1C7E065
:1066B0007C1E012F00D1F9E0914EB7425CD027003B
:1066C00040E720224C464046D21B9440F840044309
:1066D00040469040421E90414A46FA400443891881
:1066E000EEE6874CA24200D1F9E6181898429B4189
:1066F00049445B42CB18DC0740085B089A46160009
:106700000443C6E64246D41AA04580414B46404267
:10671000591A0B1A9A466546EAE54B464A46C0089E
:106720005B0765460343D108BDE6002A00D08EE032
:106730004B46034317D1802100250903DAE64A07B7
:10674000DB081343C908D1E61C1A4A46A3429B4101
:10675000891A5B42CB1A9A460126C1E54A07DB0833
:106760001343C9089FE64346D8084B464A465B0791
:1067700065460343D108B9E64346D8084B464A4626
:106780005B070343D108B1E619430C00631E9C412B
:10679000EBE63C000D00203CE540202F03D04024D8
:1067A000E41BA1400B431C00631E9C412C4370E77B
:1067B000002AE1D04A460243C1D04A07DB0813430E
:1067C0008022C9081203114208D04846C408144266
:1067D00004D143462100DB08420713435A0FDB0074
:1067E0005207DB08134381E64B46034300D114E70D
:1067F0004B464A46C0085B0765460343D10855E649
:10680000C41AA04580414B464042591A0B1A9A4679
:106810006546012664E51C1A4A46A34280418A1A4D
:106820004042121A9246120249D54246D41AA04555
:1068300080414B464042591A0B1A9A4665467FE5FD
:106840004B464A46C0085B070343D1082BE64A463D
:10685000DB08024338D14A071343C90846E64B46D2
:106860004A46C0085B070343D1081FE61C189C4238
:106870009B4149448A465B429A4453461B0200D4DA
:1068800007E652461F4B01261A40924601E63C009D
:106890000E00203CE640202F03D04024E41BA14002
:1068A0000B431C00631E9C4134435EE64344834219
:1068B000804149448A4640421C008244BCE653461B
:1068C000234300D1A9E6E4E54A0713438022C9081F
:1068D0001203114209D04846C408144205D1434668
:1068E00065462100DB08420713435A0FDB00DB0833
:1068F00052071343FAE50023014A1C0040E5C04655
:10690000FF070000FFFF7FFFF0B54546DE46574614
:106910004E46E0B51F000B031B0B9B464D00CB0FF3
:1069200004009146984687B06D0D00D1CDE1CE4B65
:106930009D4200D1E9E15A46430FD2001343802221
:1069400012041A43C3009A46C84B93469C46002340
:106950000026654400933C037B004846240B5B0DF6
:10696000FF0F002B00D189E1BF4A934219D0420F9B
:10697000E4002243802424041443BC4A00219446AA
:10698000424663445B190193019B7A400133C00086
:10699000D2B202930A2E1CDD3A000B2E5ED047467F
:1069A00056E04946B04B2143EB18019300292AD108
:1069B0008020022200012B00844616434246634495
:1069C0007A40D2B202930A2E00DD31E20020002488
:1069D0000221022E26DC013E012E52D802294CD083
:1069E000012900D018E10023002400251B052343C2
:1069F000D20713432800190007B0F0BCBB46B246CB
:106A0000A946A046F0BD8021032209012B008C4637
:106A10001643424663447A40D2B202930A2E00DD06
:106A200028E203210125B540AC46A6266346F600C0
:106A3000354033420BD19026B600334218D1B93ECF
:106A4000FF3E1E421DD0A3468246009100E0170083
:106A500000993A00022910D05C4650460329BFD164
:106A600080231B031C43240305007F4B240BBDE73D
:106A7000802400227C4B2403B8E7002400257A4BB5
:106A8000B4E753461E04360C1F0C3300010C0004FF
:106A9000000C4343984603007B43994633004B4325
:106AA0009C4643460D001B0C9A467D43CC44D4447F
:106AB0000095E14504D980235B0299464D44009539
:106AC00063461B0C1D0063461B049C4643461B0487
:106AD0001B0C9846634643440393230C98463300AB
